:020000040800F2
:10000000002800205D1B0008E51A0008ED1A000812
:10001000F51A0008FD1A0008051B00080000000082
:100020000000000000000000000000000D1B0008A0
:10003000191B000800000000251B0008311B0008E8
:10004000A51B0008A51B0008A51B0008A51B000890
:10005000A51B0008A51B0008A51B0008A51B000880
:10006000A51B0008A51B0008A51B0008A51B000870
:10007000A51B0008A51B0008A51B0008A51B000860
:10008000A51B0008A51B0008A51B0008A51B000850
:10009000A51B0008A51B0008A51B0008A51B000840
:1000A000A51B0008A51B0008A51B0008A51B000830
:1000B0003D1B0008A51B000800000000A51B000850
:1000C000A51B00080000000000000000A51B0008A0
:1000D00000000000A51B0008A51B00080000000090
:1000E000A51B0008A51B0008A51B000800000000B8
:1000F0000000000000000000000000000000000000
:0C01000000000000000000005FF808F1A3
:10010C0010B5054C237833B9044B13B10448AFF345
:10011C0000800123237010BD680000200000000047
:10012C00DC31000808B5034B1BB103490348AFF39E
:10013C00008008BD000000006C000020DC310008CD
:10014C0080B582B000AF78607B68002BC0F29C81D8
:10015C007B68092B00F398817B68092B00F2968150
:10016C0001A252F823F000BF9D010008E90100082C
:10017C003502000881020008CD02000819030008AE
:10018C0065030008B1030008FD03000849040008DA
:10019C0000220121BF4802F004F800220221BD48D0
:1001AC0001F0FFFF00220421BA4801F0FAFF0022FF
:1001BC000821B84801F0F5FF00221021B54801F0E4
:1001CC00F0FF00224FF48071B24801F0EAFF0122E7
:1001DC004FF40071AF4801F0E4FF58E10122012116
:1001EC00AC4801F0DEFF00220221AA4801F0D9FF41
:1001FC0000220421A74801F0D4FF01220821A548C0
:10020C0001F0CFFF01221021A24801F0CAFF012208
:10021C004FF480719F4801F0C4FF01224FF400712C
:10022C009C4801F0BEFF32E100220121994801F007
:10023C00B8FF00220221974801F0B3FF01220421EC
:10024C00944801F0AEFF00220821924801F0A9FF6A
:10025C00002210218F4801F0A4FF01224FF480717D
:10026C008C4801F09EFF00224FF40071894801F088
:10027C0098FF0CE100220121864801F092FF002238
:10028C000221844801F08DFF00220421814801F0F5
:10029C0088FF002208217F4801F083FF01221021F2
:1002AC007C4801F07EFF01224FF48071794801F007
:1002BC0078FF00224FF40071764801F072FFE6E0FF
:1002CC0001220121734801F06CFF002202217148C8
:1002DC0001F067FF002204216E4801F062FF012249
:1002EC0008216C4801F05DFF01221021694801F0E2
:1002FC0058FF00224FF48071664801F052FF002233
:10030C004FF40071634801F04CFFC0E00022012162
:10031C00604801F046FF012202215E4801F041FFD6
:10032C00002204215B4801F03CFF002208215948BF
:10033C0001F037FF01221021564801F032FF002254
:10034C004FF48071534801F02CFF00224FF40071E0
:10035C00504801F026FF9AE0002201214D4801F09F
:10036C0020FF012202214B4801F01BFF0022042137
:10037C00484801F016FF00220821464801F011FF01
:10038C0000221021434801F00CFF00224FF4807131
:10039C00404801F006FF00224FF400713D4801F087
:1003AC0000FF74E0002201213A4801F0FAFE00221D
:1003BC000221384801F0F5FE00220421354801F0F5
:1003CC00F0FE01220821334801F0EBFE012210213E
:1003DC00304801F0E6FE01224FF480712D4801F007
:1003EC00E0FE01224FF400712A4801F0DAFE4EE0E3
:1003FC0000220121274801F0D4FE002202212548C9
:10040C0001F0CFFE00220421224801F0CAFE002296
:10041C000821204801F0C5FE002210211D4801F0E2
:10042C00C0FE00224FF480711A4801F0BAFE00227F
:10043C004FF40071174801F0B4FE28E000220121AE
:10044C00144801F0AEFE00220221124801F0A9FE70
:10045C00002204210F4801F0A4FE002208210D48BF
:10046C0001F09FFE012210210A4801F09AFE0022A1
:10047C004FF48071074801F094FE00224FF4007194
:10048C00044801F08EFE02E000BF00E000BF083718
:10049C00BD4680BD0008014080B582B000AF7860D9
:1004AC007B68002BC0F2B0817B68092B00F3AC8118
:1004BC007B68092B00F2AA8101A252F823F000BF3D
:1004CC00F50400084505000895050008E505000839
:1004DC003506000885060008D50600082507000823
:1004EC0075070008C507000800222021C94801F043
:1004FC0058FE00224021C74801F053FE0022802103
:10050C00C44801F04EFE00224FF48071C14801F046
:10051C0048FE00224FF40071BE4801F042FE00225A
:10052C004FF40051BB4801F03CFE01224FF48041D6
:10053C00B84801F036FE6AE101222021B54801F0ED
:10054C0030FE00224021B34801F02BFE0022802116
:10055C00B04801F026FE01224FF48071AD4801F045
:10056C0020FE01224FF40071AA4801F01AFE01226C
:10057C004FF40051A74801F014FE01224FF48041C2
:10058C00A44801F00EFE42E100222021A14801F016
:10059C0008FE002240219F4801F003FE0122802129
:1005AC009C4801F0FEFD00224FF48071994801F047
:1005BC00F8FD00224FF40071964801F0F2FD012283
:1005CC004FF40051934801F0ECFD00224FF48041B0
:1005DC00904801F0E6FD1AE1002220218D4801F03F
:1005EC00E0FD002240218B4801F0DBFD0022802140
:1005FC00884801F0D6FD00224FF48071854801F047
:10060C00D0FD01224FF40071824801F0CAFD012295
:10061C004FF400517F4801F0C4FD00224FF480419B
:10062C007C4801F0BEFDF2E001222021794801F066
:10063C00B8FD00224021774801F0B3FD0022802153
:10064C00744801F0AEFD01224FF48071714801F045
:10065C00A8FD01224FF400716E4801F0A2FD0022AA
:10066C004FF400516B4801F09CFD00224FF4804187
:10067C00684801F096FDCAE000222021654801F08F
:10068C0090FD01224021634801F08BFD0022802166
:10069C00604801F086FD00224FF480715D4801F046
:1006AC0080FD01224FF400715A4801F07AFD0022BE
:1006BC004FF40051574801F074FD00224FF4804173
:1006CC00544801F06EFDA2E000222021514801F0B7
:1006DC0068FD012240214F4801F063FD002280217A
:1006EC004C4801F05EFD00224FF48071494801F046
:1006FC0058FD00224FF40071464801F052FD0022D3
:10070C004FF40051434801F04CFD00224FF480415E
:10071C00404801F046FD7AE0002220213D4801F0DE
:10072C0040FD002240213B4801F03BFD002280218E
:10073C00384801F036FD01224FF48071354801F044
:10074C0030FD01224FF40071324801F02AFD0122E4
:10075C004FF400512F4801F024FD01224FF4804149
:10076C002C4801F01EFD52E000222021294801F006
:10077C0018FD00224021274801F013FD00228021A2
:10078C00244801F00EFD00224FF48071214801F045
:10079C0008FD00224FF400711E4801F002FD0022FA
:1007AC004FF400511B4801F0FCFC00224FF4804137
:1007BC00184801F0F6FC2AE000222021154801F02F
:1007CC00F0FC00224021134801F0EBFC00228021B8
:1007DC00104801F0E6FC00224FF480710D4801F046
:1007EC00E0FC01224FF400710A4801F0DAFC00220F
:1007FC004FF40051074801F0D4FC00224FF4804123
:10080C00044801F0CEFC02E000BF00E000BF083756
:10081C00BD4680BD000C014080B584B000AF78604F
:10082C007B68002B5BDB7B68632B58DC2E4B1B68D7
:10083C00012B55D1642001F061F87B68092B0FDC8A
:10084C0000224FF48061294801F0ABFC00224FF4E8
:10085C000061264801F0A5FC7868FFF771FC3FE0C9
:10086C00234B1B68002B1AD17B68224A82FB031294
:10087C009210DB17D31ABB6000224FF480611B4827
:10088C0001F08FFC01224FF40061184801F089FC43
:10089C00B868FFF755FC164B01221A6020E07A6805
:1008AC00144B83FB02139910D317C91A0B469B00E8
:1008BC000B445B00D31AFB6000224FF400610B4821
:1008CC0001F06FFC01224FF48061084801F069FCD3
:1008DC00F868FFF735FC064B00221A6000E000BFF9
:1008EC001037BD4680BD00BF240100200008014028
:1008FC00840000206766666680B584B000AF7860BF
:10090C007B68002B5BDB7B68632B58DC2E4B1B68F6
:10091C00012B55D1642000F0D7FF7B68092B0FDC2D
:10092C0000224FF48051294801F03BFC00224FF487
:10093C000041264801F035FC7868FFF7ADFD3FE03B
:10094C00234B1B68002B1AD17B68224A82FB0312B3
:10095C009210DB17D31ABB6000224FF480511B4856
:10096C0001F01FFC01224FF40041184801F019FC62
:10097C00B868FFF791FD164B01221A6020E07A68E7
:10098C00144B83FB02139910D317C91A0B469B0007
:10099C000B445B00D31AFB6000224FF400410B4860
:1009AC0001F0FFFB01224FF48051084801F0F9FBE4
:1009BC00F868FFF771FD064B00221A6000E000BFDB
:1009CC001037BD4680BD00BF20010020000801404B
:1009DC00880000206766666680B400AF064B1B6813
:1009EC00012B04D1044B00221A60012300E00023E8
:1009FC001846BD4680BC70479000002080B400AF04
:100A0C00064B1B68012B04D1044B00221A600123F6
:100A1C0000E000231846BD4680BC704798000020BB
:100A2C0080B400AF064B1B68012B04D1044B002291
:100A3C001A60012300E000231846BD4680BC7047B5
:100A4C00A000002080B500AF694B1B68694A136099
:100A5C00694B1B68664A13602021684801F08AFBC9
:100A6C0003461A46644B1A60614B1A68614B1B684B
:100A7C009A422FD15E4B1A685F4B1B689A4229D160
:100A8C005D4B1A685E4B1B689A420FD05A4B1B6821
:100A9C005B4A13605A4B1B68002B1BD1594B4FF40C
:100AAC00FA721A60584B01221A6013E0554B1B68FE
:100ABC00013B544A1360534B1B68002B0AD1514B1A
:100ACC004FF4FA721A604E4B1B68002B02D14F4B3D
:100ADC0001221A604E4B1B684E4A13604E4B1B682A
:100AEC004B4A13604021454801F044FB03461A462B
:100AFC00494B1A60464B1A68464B1B689A422FD1D9
:100B0C00434B1A68444B1B689A4229D1424B1A68D2
:100B1C00424B1B689A420FD03F4B1B683F4A1360F5
:100B2C003E4B1B68002B1BD13D4B4FF4FA721A60E5
:100B3C003C4B01221A6013E0394B1B68013B384ACD
:100B4C001360374B1B68002B0AD1354B4FF4FA72EC
:100B5C001A60324B1B68002B02D1334B01221A60F6
:100B6C00324B1B68324A1360324B1B682F4A13609E
:100B7C008021224801F0FEFA03461A462D4B1A60DA
:100B8C002A4B1A682A4B1B689A422FD1274B1A689A
:100B9C00284B1B689A4229D1264B1A68264B1B6896
:100BAC009A420FD0234B1B68234A1360224B1B68BD
:100BBC00002B1BD1214B4FF4FA721A60204B0122EF
:100BCC001A6013E01D4B1B68013B1C4A13601B4B46
:100BDC001B68002B0AD1194B4FF4FA721A60164B92
:100BEC001B68002B02D1174B01221A6000BF80BD7D
:100BFC000400002000000020080000200008014034
:100C0C000C00002010000020900000208C00002020
:100C1C0018000020140000201C00002020000020E0
:100C2C002400002098000020940000202C000020BC
:100C3C002800002030000020340000203800002064
:100C4C00A00000209C00002080B500AFAC4B1B68BE
:100C5C00032B00F24B8101A252F823F0790C00080F
:100C6C00050D0008AD0D0008530E000800220121EF
:100C7C00A44801F096FA00224FF40061A14801F05B
:100C8C0090FA00224FF480519E4801F08AFA00221B
:100C9C004FF480619C4801F084FA00224FF400610B
:100CAC00994801F07EFA00224FF48051964801F0E9
:100CBC0078FA00224FF40041934801F072FA904BFD
:100CCC0001221A60914B1B68914A1360904B1B6870
:100CDC001846FFF7A1FD8D4B1B684FF47A7202FB8F
:100CEC0003F3184600F088FD4FF47A7000F09EFD77
:100CFC000A2000F003FE00E101220121814801F0ED
:100D0C0050FA00224FF400617E4801F04AFA0022AA
:100D1C004FF480517B4801F044FA7E4B1B68012B49
:100D2C0008D14FF47A7000F081FD794B1B68013BC0
:100D3C00774A1360764B1B681846FFF76DFDFFF77B
:100D4C004BFE0346012B09D16D4B0A221A60724BE4
:100D5C000A221A6042F2107000F04EFD6F4B1B68B5
:100D6C00012B40F0C580664B02221A606C4B1B684D
:100D7C004FF47A7202FB03F3184600F03DFD684B0A
:100D8C001B68634A1360624B1B681846FFF744FDEF
:100D9C004FF47A7000F04AFD0A2000F0AFFDA7E096
:100DAC0000220121574801F0FCF901224FF40061A7
:100DBC00544801F0F6F900224FF48051514801F0EB
:100DCC00F0F9544B1B68012B08D14FF47A7000F0EA
:100DDC002DFD4F4B1B68013B4D4A13604C4B1B6860
:100DEC001846FFF719FDFFF7F7FD0346012B09D154
:100DFC00434B0A221A60484B0A221A6042F21070C6
:100E0C0000F0FAFC454B1B68012B73D13C4B0322C1
:100E1C001A60444B1B684FF47A7202FB03F31846BA
:100E2C0000F0EAFC3F4B1B68394A1360384B1B68D7
:100E3C001846FFF7F1FC4FF47A7000F0F7FC0A202B
:100E4C0000F05CFD56E0002201212E4801F0A9F9CA
:100E5C0000224FF400612B4801F0A3F901224FF45A
:100E6C008051284801F09DF92A4B1B68012B08D1B1
:100E7C004FF47A7000F0DAFC254B1B68013B244AD6
:100E8C001360234B1B681846FFF7C6FCFFF7A4FD45
:100E9C000346012B09D11A4B0A221A601E4B0A2257
:100EAC001A6042F2107000F0A7FC1C4B1B68012B5F
:100EBC0022D1134B01221A60144B1B684FF47A7227
:100ECC0002FB03F3184600F097FC104B1B68104A0A
:100EDC0013600F4B1B681846FFF79EFC4FF47A709B
:100EEC0000F0A4FC0A2000F009FD05E000BF04E0BE
:100EFC0000BF02E000BF00E000BF00BF80BD00BF2C
:100F0C00AC000020000C0140000801404C00002007
:100F1C00A400002014010020480000201001002033
:100F2C00500000205400002080B500AF864B1B6899
:100F3C00043B032B00F2FF8001A252F823F000BF08
:100F4C005D0F0008BF100008B50F00083B1000082B
:100F5C00002202217D4801F024F9002208217B485F
:100F6C0001F01FF900221021784801F01AF9764B94
:100F7C0006221A60764B1B68764A1360754B1B6809
:100F8C001846FFF7B9FC724B1B684FF47A7202FBE0
:100F9C0003F3184600F064FC4FF47A7000F07AFC0E
:100FAC000A2000F091FCCDE001220221674801F0FB
:100FBC00F8F800220821654801F0F3F8002210210E
:100FCC00624801F0EEF8644B1B68012B08D14FF41A
:100FDC007A7000F05FFC5F4B1B68013B5D4A13604D
:100FEC005C4B1B681846FFF787FC5C4B1B68012B9E
:100FFC0040F0A380544B07221A60594B1B684FF4E6
:10100C007A7202FB03F3184600F02AFC544B1B685F
:10101C00504A13604F4B1B681846FFF76DFC4FF49A
:10102C007A7000F037FC0A2000F04EFC85E00022BC
:10103C000221464801F0B5F801220821434801F08D
:10104C00B0F800221021414801F0ABF8424B1B686C
:10105C00012B08D14FF47A7000F01CFC3D4B1B683F
:10106C00013B3C4A13603B4B1B681846FFF744FCA2
:10107C003A4B1B68012B62D1334B05221A60394B5A
:10108C001B684FF47A7202FB03F3184600F0E8FB7E
:10109C00344B1B682F4A13602E4B1B681846FFF706
:1010AC002BFC4FF47A7000F0F5FB0A2000F00CFCDE
:1010BC0045E000220221254801F073F800220821A6
:1010CC00224801F06EF801221021204801F069F845
:1010DC00214B1B68012B08D14FF47A7000F0DAFB1E
:1010EC001C4B1B68013B1B4A13601A4B1B681846B0
:1010FC00FFF702FC194B1B68012B22D1124B062265
:10110C001A60134B1B684FF47A7202FB03F31846F8
:10111C0000F0A6FB0E4B1B680E4A13600D4B1B68B0
:10112C001846FFF7E9FB4FF47A7000F0B3FB0A2086
:10113C0000F0CAFB05E000BF04E000BF02E000BF06
:10114C0000E000BF00BF80BD48000020000C014043
:10115C0050000020A80000201C01002018010020D5
:10116C00540000204C00002080B483B000AF7860A5
:10117C00034A7B68136000BF0C37BD4680BC7047C8
:10118C004C00002080B483B000AF7860034A7B68C9
:10119C00136000BF0C37BD4680BC70475000002068
:1011AC0080B483B000AF7860034A7B68136000BFE3
:1011BC000C37BD4680BC70475400002080B500AF92
:1011CC00B44B1B680A3B042B00F2DE8101A252F8DF
:1011DC0023F000BFF51100087D120008D912000899
:1011EC00BD130008C114000800220121AA4800F018
:1011FC00D8FF00224FF40061A74800F0D2FF002274
:10120C004FF48051A44800F0CCFF00220221A248E8
:10121C0000F0C7FF002208219F4800F0C2FF002207
:10122C0010219D4800F0BDFF01224FF480519B48D6
:10123C0000F0B7FF01224FF40041984800F0B1FFD5
:10124C0000224FF48061954800F0ABFF00224FF470
:10125C000061924800F0A5FF8E4B0B221A6040F6FD
:10126C00B83000F0C9FA4FF4FA7000F0DFFA94E1EC
:10127C000120FEF765FFFFF7AFFB0346012B0DD1F5
:10128C00844B0C221A6042F2107000F0B5FA4FF445
:10129C00FA7000F0CBFA0A2000F016FB804B1B68AA
:1012AC00012B40F073817B4B00221A607D4B042292
:1012BC001A6000224FF48051784800F072FF00222F
:1012CC004FF40041754800F06CFF5FE10220FEF71F
:1012DC0037FF754B1B68012B21D101216E4800F0A3
:1012EC0078FF10216C4800F074FF002202216A483C
:1012FC0000F057FF00220821674800F052FF00223F
:10130C004FF40061644800F04CFF00224FF4805110
:10131C00614800F046FF4FF4FA7000F087FAFFF7CF
:10132C005BFB0346012B0DD15A4B0D221A6042F286
:10133C00107000F061FA4FF4FA7000F077FA0A209E
:10134C0000F0C2FAFFF75AFB0346012B0FD1574BA3
:10135C001B680133554A1360544B1B68632B02DD29
:10136C00524B01221A6042F2107000F045FA4F4BBA
:10137C001B681846FFF7C0FAFFF752FB0346012B18
:10138C000AD14A4B1B681846FFF7EEFE414B002270
:10139C001A60444B04221A60414B1B68012B40F02D
:1013AC00F7803C4B00221A603E4B04221A60EFE09F
:1013BC000320FEF7C5FE3C4B1B68012B21D10821F5
:1013CC00354800F006FF4FF48051334800F001FF20
:1013DC0000220121304800F0E4FE002202212E48B8
:1013EC0000F0DFFE002210212B4800F0DAFE002274
:1013FC004FF40061284800F0D4FE4FF4FA7000F06E
:10140C0015FAFFF7E9FA0346012B0DD1214B0E22F9
:10141C001A6042F2107000F0EFF94FF4FA7000F01D
:10142C0005FA0A2000F050FAFFF7E8FA0346012B00
:10143C000FD11F4B1B6801331D4A13601C4B1B68DB
:10144C00632B02DD1A4B01221A6042F2107000F07D
:10145C00D3F9174B1B681846FFF74EFAFFF7E0FA63
:10146C000346012B0AD1124B1B681846FFF798FE56
:10147C00084B00221A600B4B04221A60084B1B68A5
:10148C00012B40F08780034B00221A60054B04228D
:10149C001A607FE0AC000020000C01400008014005
:1014AC001001002048000020140100203C00002006
:1014BC00440000200420FEF743FE394B1B68012B2F
:1014CC0021D14FF40061374800F083FE02213548EA
:1014DC0000F07FFE00220121324800F062FE002263
:1014EC000821304800F05DFE002210212D4800F04C
:1014FC0058FE00224FF480512A4800F052FE4FF45F
:10150C00FA7000F093F9FFF767FA0346012B06D146
:10151C00254B0A221A6040F6B83000F06DF9FFF73F
:10152C006DFA0346012B0FD1204B1B6801331F4A68
:10153C0013601E4B1B68632B02DD1C4B01221A60CF
:10154C0042F2107000F058F9184B1B681846FFF760
:10155C00D3F9FFF765FA0346012B0AD1134B1B682D
:10156C001846FFF70FFE104B00221A60104B042296
:10157C001A60104B1B68012B0ED10B4B00221A600A
:10158C000B4B04221A6007E000BF06E000BF04E02A
:10159C0000BF02E000BF00E000BF00BF80BD00BF85
:1015AC0014010020000C0140AC0000204000002081
:1015BC00480000201001002080B500AF00F0EEFACA
:1015CC0000F012F800F098F800F04AF8054801F025
:1015DC0047FAFFF739FBFFF7A7FCFFF7EFFD00BF5A
:1015EC00F7E700BFB000002080B590B000AF07F166
:1015FC00180328220021184601F0BEFD3B1D0022D5
:10160C001A605A609A60DA601A610223BB61012386
:10161C00BB621023FB6200237B6307F1180318469F
:10162C0000F0F0FD0346002B01D000F0DFF80F2393
:10163C007B600023BB600023FB6000233B61002325
:10164C007B613B1D0021184601F05EF80346002B20
:10165C0001D000F0CBF800BF4037BD4680BD000084
:10166C0080B586B000AF07F1080300221A605A60FB
:10167C009A60DA603B4600221A605A601D4B4FF0AC
:10168C0080421A601B4B41F63F725A60194B002284
:10169C009A60184B0922DA60164B00221A61154B1E
:1016AC0000229A61134801F08BF90346002B01D0FC
:1016BC0000F09CF84FF48053BB6007F10803194607
:1016CC000C4801F009FB0346002B01D000F08EF80A
:1016DC0000233B6000237B603B461946054801F024
:1016EC00E1FC0346002B01D000F080F800BF183756
:1016FC00BD4680BDB000002080B588B000AF07F1BA
:10170C00100300221A605A609A60DA602E4B9B69B3
:10171C002D4A43F0200393612B4B9B6903F020036C
:10172C00FB60FB68284B9B69274A43F004039361D9
:10173C00254B9B6903F00403BB60BB68224B9B6980
:10174C00214A43F0080393611F4B9B6903F0080384
:10175C007B607B68002249F61F711C4800F021FD5C
:10176C00002247F6FB311A4800F01BFD49F61F73A7
:10177C003B6101237B610023BB610223FB6107F109
:10178C0010031946114800F079FBE0233B6100235C
:10179C007B610123BB6107F1100319460B4800F074
:1017AC006DFB47F6FB333B6101237B610023BB617F
:1017BC000223FB6107F110031946054800F05EFB9C
:1017CC0000BF2037BD4680BD00100240000801401C
:1017DC00000C014080B582B000AF7860FFF732F9A1
:1017EC0000F0A6F800BF0837BD4680BD80B400AF3E
:1017FC0072B600BF00BFFDE780B483B000AF786065
:10180C00074B1B687A6892FBF3F3064A1360064B8E
:10181C0000221A6000BF0C37BD4680BC704700BF69
:10182C0058000020F80000201001002080B483B084
:10183C0000AF7860074B1B687A6892FBF3F3064A9B
:10184C001360064B00221A6000BF0C37BD4680BCEB
:10185C00704700BF58000020FC000020140100203D
:10186C0080B483B000AF7860074B1B687A6892FB3A
:10187C00F3F3064A1360064B00221A6000BF0C37C4
:10188C00BD4680BC704700BF5800002000010020FE
:10189C001801002080B483B000AF7860074B1B6840
:1018AC007A6892FBF3F3064A1360064B00221A6027
:1018BC0000BF0C37BD4680BC704700BF58000020ED
:1018CC00040100201C01002080B483B000AF7860BC
:1018DC00074B1B687A6892FBF3F3064A1360064BBE
:1018EC0000221A6000BF0C37BD4680BC704700BF99
:1018FC0058000020080100202001002080B483B093
:10190C0000AF7860074B1B687A6892FBF3F3064ACA
:10191C001360064B00221A6000BF0C37BD4680BC1A
:10192C00704700BF580000200C010020240100204B
:10193C0080B400AF314B1B68002B0BDD2F4B1B68A9
:10194C00013B2E4A13602D4B1B68002B02D12C4BF4
:10195C0001221A602B4B1B68002B0BDD294B1B68DB
:10196C00013B284A1360274B1B68002B02D1264BE6
:10197C0001221A60254B1B68002B0BDD234B1B68C7
:10198C00013B224A1360214B1B68002B02D1204BD8
:10199C0001221A601F4B1B68002B0BDD1D4B1B68B3
:1019AC00013B1C4A13601B4B1B68002B02D11A4BCA
:1019BC0001221A60194B1B68002B0BDD174B1B689F
:1019CC00013B164A1360154B1B68002B02D1144BBC
:1019DC0001221A60134B1B68002B0BDD114B1B688B
:1019EC00013B104A13600F4B1B68002B02D10E4BAE
:1019FC0001221A6000BFBD4680BC7047F800002071
:101A0C0010010020FC000020140100200001002027
:101A1C0018010020040100201C01002008010020F6
:101A2C00200100200C0100202401002080B485B08E
:101A3C0000AF154B9B69144A43F001039361124BA1
:101A4C009B6903F00103BB60BB680F4BDB690E4A5B
:101A5C0043F08053D3610C4BDB6903F080537B6004
:101A6C007B680A4B5B68FB60FB6823F0E063FB6000
:101A7C00FB6843F00073FB60044AFB68536000BFD3
:101A8C001437BD4680BC7047001002400000014076
:101A9C0080B584B000AF78607B681B68B3F1804F71
:101AAC0013D10C4BDB690B4A43F00103D361094B97
:101ABC00DB6903F00103FB60FB68002200211C20A2
:101ACC0000F0A5F91C2000F0BEF900BF1037BD4690
:101ADC0080BD00BF0010024080B400AF00BFFDE726
:101AEC0080B400AF00BFFDE780B400AF00BFFDE7DE
:101AFC0080B400AF00BFFDE780B400AF00BFFDE7CE
:101B0C0080B400AF00BFBD4680BC704780B400AF4E
:101B1C0000BFBD4680BC704780B400AF00BFBD465F
:101B2C0080BC704780B500AF00F07EF800BF80BD70
:101B3C0080B500AF024800F0DFFF00BF80BD00BFE2
:101B4C00B000002080B400AF00BFBD4680BC704721
:101B5C00FFF7F8FF0B480C490C4A002302E0D4585D
:101B6C00C4500433C4188C42F9D3094A094C0023DD
:101B7C0001E013600432A242FBD301F005FBFFF736
:101B8C001BFD704700000020680000202032000878
:101B9C00680000202C010020FEE7000080B500AF9B
:101BAC00084B1B68074A43F010031360032000F036
:101BBC0023F90F2000F008F8FFF738FF0023184630
:101BCC0080BD00BF0020024080B582B000AF7860BD
:101BDC00124B1A68124B1B7819464FF47A73B3FBED
:101BEC00F1F3B2FBF3F3184600F03BF90346002B7C
:101BFC0001D001230EE07B680F2B0AD800227968F4
:101C0C004FF0FF3000F003F9064A7B6813600023A5
:101C1C0000E0012318460837BD4680BD5C0000205B
:101C2C00640000206000002080B400AF054B1B78DE
:101C3C001A46054B1B681344034A136000BFBD468C
:101C4C0080BC7047640000202801002080B400AFE5
:101C5C00024B1B681846BD4680BC7047280100200B
:101C6C0080B485B000AF78607B6803F00703FB603D
:101C7C000C4BDB68BB60BA684FF6FF031340BB60CC
:101C8C00FB681A02BB68134343F0BF6343F4003391
:101C9C00BB60044ABB68D36000BF1437BD4680BC30
:101CAC00704700BF00ED00E080B400AF044BDB6870
:101CBC001B0A03F007031846BD4680BC704700BFE3
:101CCC0000ED00E080B483B000AF0346FB7197F9E0
:101CDC000730002B0BDBFB7903F01F02064997F949
:101CEC0007305B09012000FA02F241F8232000BF03
:101CFC000C37BD4680BC704700E100E080B483B077
:101D0C0000AF03463960FB7197F90730002B0ADBF3
:101D1C003B68DAB20C4997F907301201D2B20B4486
:101D2C0083F800230AE03B68DAB20849FB7903F038
:101D3C000F03043B1201D2B20B441A7600BF0C37CE
:101D4C00BD4680BC704700BF00E100E000ED00E044
:101D5C0080B489B000AFF860B9607A60FB6803F0BA
:101D6C000703FB61FB69C3F10703042B28BF0423A2
:101D7C00BB61FB690433062B02D9FB69033B00E012
:101D8C0000237B614FF0FF32BB6902FA03F3DA43A5
:101D9C00BB681A407B699A404FF0FF317B6901FAAE
:101DAC0003F3D9437B680B40134318462437BD46D5
:101DBC0080BC704780B582B000AF78607B68013B17
:101DCC00B3F1807F01D301230FE00A4A7B68013B0A
:101DDC0053600F214FF0FF30FFF790FF054B0022AF
:101DEC009A60044B07221A60002318460837BD4638
:101DFC0080BD00BF10E000E080B582B000AF78601D
:101E0C007868FFF72DFF00BF0837BD4680BD80B551
:101E1C0086B000AF0346B9607A60FB7300237B6128
:101E2C00FFF742FF78617A68B9687869FFF790FF2D
:101E3C00024697F90F3011461846FFF75FFF00BFB7
:101E4C001837BD4680BD80B582B000AF0346FB712C
:101E5C0097F907301846FFF735FF00BF0837BD4626
:101E6C0080BD80B582B000AF78607868FFF7A2FFC4
:101E7C00034618460837BD4680BD000080B48BB0C1
:101E8C0000AF7860396000237B6200233B6261E124
:101E9C0001227B6A02FA03F3FB613B681B68FA6957
:101EAC001340BB61BA69FB699A4240F050813B68B0
:101EBC005B68974A93425ED0954A934275D8954A8F
:101ECC00934258D0934A93426FD8934A934252D03C
:101EDC00914A934269D8914A93424CD08F4A93428B
:101EEC0063D88F4A934246D08D4A93425DD8122BC9
:101EFC002AD8122B59D801A252F823F0831F0008BC
:101F0C005D1F00086F1F0008B11F0008B71F0008F5
:101F1C00B71F0008B71F0008B71F0008B71F00083D
:101F2C00B71F0008B71F0008B71F0008B71F00082D
:101F3C00B71F0008B71F0008B71F0008B71F00081D
:101F4C00651F0008791F0008764A934213D02CE0D5
:101F5C003B68DB683B6229E03B68DB6804333B622F
:101F6C0024E03B68DB6808333B621FE03B68DB68BE
:101F7C000C333B621AE03B689B68002B02D10423B4
:101F8C003B6213E03B689B68012B05D108233B6245
:101F9C007B68FA691A6109E008233B627B68FA697D
:101FAC005A6103E000233B6200E000BFBB69FF2BDA
:101FBC0001D87B6801E07B6804337B61BB69FF2B34
:101FCC0002D87B6A9B0002E07B6A083B9B003B616A
:101FDC007B691A680F213B6901FA03F3DB431A4052
:101FEC00396A3B6901FA03F31A437B691A603B684F
:101FFC005B6803F08053002B00F0A9804A4B9B696F
:10200C00494A43F001039361474B9B6903F0010379
:10201C00BB60BB68454A7B6A9B08023352F823308D
:10202C00FB607B6A03F003039B000F2202FA03F3AD
:10203C00DB43FA681340FB607B683D4A93420DD04A
:10204C007B683C4A934207D07B683B4A934201D160
:10205C00022304E0032302E0012300E000237A6A58
:10206C0002F0030292009340FA681343FB602F497D
:10207C007B6A9B080233FA6841F823203B685B6853
:10208C0003F48013002B06D02C4B9A682B49BB69A8
:10209C0013438B6006E0294B9A68BB69DB432749E5
:1020AC0013408B603B685B6803F40013002B06D075
:1020BC00224BDA682149BB691343CB6006E01F4B06
:1020CC00DA68BB69DB431D491340CB603B685B6836
:1020DC0003F40033002B06D0184B5A681749BB6920
:1020EC0013434B6006E0154B5A68BB69DB4313493D
:1020FC0013404B603B685B6803F48033002B1FD0AC
:10210C000E4B1A680D49BB6913430B601FE000BFEF
:10211C0000003210000031100000221000002110CD
:10212C0000001210000011100010024000000140CD
:10213C0000080140000C0140001001400004014067
:10214C000B4B1A68BB69DB43094913400B607B6A74
:10215C0001337B623B681A687B6A22FA03F3002B1B
:10216C007FF496AE00BF00BF2C37BD4680BC7047D5
:10217C000004014080B485B000AF78600B467B80D2
:10218C007B689A687B881340002B02D00123FB7379
:10219C0001E00023FB73FB7B18461437BD4680BC63
:1021AC00704780B483B000AF78600B467B801346D9
:1021BC007B707B78002B03D07A887B681A6103E0F4
:1021CC007B881A047B681A6100BF0C37BD4680BC43
:1021DC00704780B485B000AF78600B467B807B681D
:1021EC00DB68FB607A88FB6813401A04FB68D943F0
:1021FC007B880B401A437B681A6100BF1437BD46BD
:10220C0080BC704780B586B000AF78607B68002BCF
:10221C0001D1012372E27B681B6803F00103002BE0
:10222C0000F08780924B5B6803F00C03042B0CD0FE
:10223C008F4B5B6803F00C03082B12D18C4B5B6843
:10224C0003F48033B3F5803F0BD1894B1B6803F447
:10225C000033002B6CD07B685B68002B68D10123AA
:10226C004CE27B685B68B3F5803F06D1804B1B6802
:10227C007F4A43F4803313602EE07B685B68002B4D
:10228C000CD17B4B1B687A4A23F480331360784B58
:10229C001B68774A23F4802313601DE07B685B681E
:1022AC00B3F5A02F0CD1724B1B68714A43F48023F9
:1022BC0013606F4B1B686E4A43F4803313600BE062
:1022CC006B4B1B686A4A23F480331360684B1B68A2
:1022DC00674A23F4802313607B685B68002B13D060
:1022EC00FFF7B4FC386108E0FFF7B0FC02463B692D
:1022FC00D31A642B01D9032300E25D4B1B6803F452
:10230C000033002BF0D014E0FFF7A0FC386108E09C
:10231C00FFF79CFC02463B69D31A642B01D90323BB
:10232C00ECE1534B1B6803F40033002BF0D100E0BD
:10233C0000BF7B681B6803F00203002B63D04C4B7F
:10234C005B6803F00C03002B0BD0494B5B6803F06C
:10235C000C03082B1CD1464B5B6803F48033002B19
:10236C0016D1434B1B6803F00203002B05D07B688E
:10237C001B69012B01D00123C0E13D4B1B6823F0ED
:10238C00F8027B685B69DB00394913430B603AE068
:10239C007B681B69002B20D0364B01221A60FFF79B
:1023AC0055FC386108E0FFF751FC02463B69D31A33
:1023BC00022B01D90323A1E12D4B1B6803F002036F
:1023CC00002BF0D02A4B1B6823F0F8027B685B696A
:1023DC00DB00274913430B6015E0264B00221A60E3
:1023EC00FFF734FC386108E0FFF730FC02463B692C
:1023FC00D31A022B01D9032380E11D4B1B6803F078
:10240C000203002BF0D17B681B6803F00803002B40
:10241C003AD07B689B69002B19D0174B01221A60AC
:10242C00FFF714FC386108E0FFF710FC02463B692B
:10243C00D31A022B01D9032360E10D4B5B6A03F025
:10244C000203002BF0D0012000F09CFA1CE00A4B98
:10245C0000221A60FFF7FAFB38610FE0FFF7F6FB7A
:10246C0002463B69D31A022B08D9032346E100BF6D
:10247C00001002400000424280044242924B5B6AD0
:10248C0003F00203002BE9D17B681B6803F0040303
:10249C00002B00F0A6800023FB758B4BDB6903F04F
:1024AC008053002B0DD1884BDB69874A43F0805356
:1024BC00D361854BDB6903F08053BB60BB680123A0
:1024CC00FB75824B1B6803F48073002B18D17F4B78
:1024DC001B687E4A43F480731360FFF7B7FB3861C7
:1024EC0008E0FFF7B3FB02463B69D31A642B01D912
:1024FC00032303E1754B1B6803F48073002BF0D0AE
:10250C007B68DB68012B06D16F4B1B6A6E4A43F06C
:10251C00010313622DE07B68DB68002B0CD16A4B46
:10252C001B6A694A23F001031362674B1B6A664AF4
:10253C0023F0040313621CE07B68DB68052B0CD1D1
:10254C00614B1B6A604A43F0040313625E4B1B6AC7
:10255C005D4A43F0010313620BE05B4B1B6A5A4A62
:10256C0023F001031362584B1B6A574A23F00403F0
:10257C0013627B68DB68002B15D0FFF767FB3861B3
:10258C000AE0FFF763FB02463B69D31A41F288323B
:10259C00934201D90323B1E04B4B1B6A03F00203B6
:1025AC00002BEED014E0FFF751FB38610AE0FFF787
:1025BC004DFB02463B69D31A41F28832934201D952
:1025CC0003239BE0404B1B6A03F00203002BEED16C
:1025DC00FB7D012B05D13C4BDB693B4A23F080533F
:1025EC00D3617B68DB69002B00F08780364B5B681E
:1025FC0003F00C03082B61D07B68DB69022B46D1FE
:10260C00334B00221A60FFF721FB386108E0FFF71B
:10261C001DFB02463B69D31A022B01D903236DE043
:10262C00294B1B6803F00073002BF0D17B681B6AED
:10263C00B3F5803F08D1244B5B6823F400327B68F0
:10264C009B68214913434B601F4B5B6823F4741246
:10265C007B68196A7B685B6A0B431B4913434B60AD
:10266C001B4B01221A60FFF7F1FA386108E0FFF703
:10267C00EDFA02463B69D31A022B01D903233DE044
:10268C00114B1B6803F00073002BF0D035E0104B9E
:10269C0000221A60FFF7DAFA386108E0FFF7D6FA81
:1026AC0002463B69D31A022B01D9032326E0064BC1
:1026BC001B6803F00073002BF0D11EE07B68DB6914
:1026CC00012B07D1012319E00010024000700040DB
:1026DC00600042420B4B5B68FB60FB6803F480328A
:1026EC007B681B6A9A4206D1FB6803F470127B6804
:1026FC005B6A9A4201D0012300E000231846183788
:10270C00BD4680BD0010024080B584B000AF78603B
:10271C0039607B68002B01D10123D0E06A4B1B6828
:10272C0003F007033A689A4210D9674B1B6823F0F1
:10273C00070265493B6813430B60634B1B6803F04E
:10274C0007033A689A4201D00123B8E07B681B6802
:10275C0003F00203002B20D07B681B6803F00403FA
:10276C00002B05D0594B5B68584A43F4E063536027
:10277C007B681B6803F00803002B05D0534B5B6888
:10278C00524A43F460535360504B5B6823F0F002A1
:10279C007B689B684D4913434B607B681B6803F057
:1027AC000103002B40D07B685B68012B07D1474BA2
:1027BC001B6803F40033002B15D101237FE07B68E9
:1027CC005B68022B07D1414B1B6803F00073002B95
:1027DC0009D1012373E03D4B1B6803F00203002B6E
:1027EC0001D101236BE0394B5B6823F003027B685A
:1027FC005B68364913434B60FFF728FAF8600AE030
:10280C00FFF724FA0246FB68D31A41F2883293424E
:10281C0001D9032353E02D4B5B6803F00C027B685A
:10282C005B689B009A42EBD1274B1B6803F00703B4
:10283C003A689A4210D2244B1B6823F007022249B3
:10284C003B6813430B60204B1B6803F007033A688B
:10285C009A4201D0012332E07B681B6803F0040329
:10286C00002B08D0194B5B6823F4E0627B68DB68B3
:10287C00164913434B607B681B6803F00803002B5D
:10288C0009D0124B5B6823F460527B681B69DB0038
:10289C000E4913434B6000F021F802460B4B5B686A
:1028AC001B0903F00F030A49CB5C22FA03F3094A14
:1028BC001360094B1B681846FFF786F9002318466E
:1028CC001037BD4680BD00BF002002400010024002
:1028DC00F43100085C0000206000002080B487B058
:1028EC0000AF0023FB600023BB6000237B6100234F
:1028FC007B6000233B611E4B5B68FB60FB6803F055
:10290C000C03042B02D0082B03D027E0194B3B619E
:10291C0027E0FB689B0C03F00F03174AD35C7B602A
:10292C00FB6803F48033002B10D0114B5B685B0CFD
:10293C0003F00103114AD35CBB607B680D4A03FBB7
:10294C0002F2BB68B2FBF3F37B6104E07B680C4AD8
:10295C0002FB03F37B617B693B6102E0054B3B614E
:10296C0000BF3B6918461C37BD4680BC704700BF92
:10297C000010024000127A000432000814320008E1
:10298C0000093D0080B485B000AF78600A4B1B682D
:10299C000A4AA2FB03235B0A7A6802FB03F3FB607F
:1029AC0000BFFB685A1EFA60002BF9D100BF00BFB4
:1029BC001437BD4680BC70475C000020D34D6210BC
:1029CC0080B582B000AF78607B68002B01D1012309
:1029DC0041E07B6893F83D30DBB2002B06D17B687D
:1029EC00002283F83C207868FFF752F87B680222BB
:1029FC0083F83D207B681A687B68043319461046BF
:102A0C0000F056FA7B68012283F846207B6801228D
:102A1C0083F83E207B68012283F83F207B680122EB
:102A2C0083F840207B68012283F841207B680122D7
:102A3C0083F842207B68012283F843207B680122C3
:102A4C0083F844207B68012283F845207B680122AF
:102A5C0083F83D20002318460837BD4680BD000092
:102A6C0080B485B000AF78607B6893F83D30DBB202
:102A7C00012B01D0012335E07B68022283F83D2035
:102A8C007B681B68DA687B681B6842F00102DA60BD
:102A9C007B681B68164A934209D07B681B68B3F1AC
:102AAC00804F04D07B681B68124A934211D17B681B
:102ABC001B689B6803F00703FB60FB68062B10D0B8
:102ACC007B681B681A687B681B6842F001021A60FD
:102ADC0007E07B681B681A687B681B6842F0010280
:102AEC001A60002318461437BD4680BC704700BFDF
:102AFC00002C01400004004080B584B000AF786029
:102B0C007B681B68DB68FB607B681B681B69BB60B0
:102B1C00BB6803F00203002B20D0FB6803F0020318
:102B2C00002B1BD07B681B686FF002021A617B685C
:102B3C0001221A777B681B689B6903F00303002B47
:102B4C0003D0786800F098F905E0786800F08BF90C
:102B5C00786800F09AF97B6800221A77BB6803F05A
:102B6C000403002B20D0FB6803F00403002B1BD0C4
:102B7C007B681B686FF004021A617B6802221A776B
:102B8C007B681B689B6903F44073002B03D0786847
:102B9C0000F072F905E0786800F065F9786800F0EB
:102BAC0074F97B6800221A77BB6803F00803002BCA
:102BBC0020D0FB6803F00803002B1BD07B681B683C
:102BCC006FF008021A617B6804221A777B681B6815
:102BDC00DB6903F00303002B03D0786800F04CF999
:102BEC0005E0786800F03FF9786800F04EF97B68F2
:102BFC0000221A77BB6803F01003002B20D0FB686F
:102C0C0003F01003002B1BD07B681B686FF01002C5
:102C1C001A617B6808221A777B681B68DB6903F4EE
:102C2C004073002B03D0786800F026F905E0786833
:102C3C0000F019F9786800F028F97B6800221A77FF
:102C4C00BB6803F00103002B0CD0FB6803F00103FD
:102C5C00002B07D07B681B686FF001021A61786843
:102C6C00FEF7B8FDBB6803F08003002B0CD0FB68AB
:102C7C0003F08003002B07D07B681B686FF0800289
:102C8C001A61786800F06FFABB6803F04003002B00
:102C9C000CD0FB6803F04003002B07D07B681B684B
:102CAC006FF040021A61786800F0F8F8BB6803F026
:102CBC002003002B0CD0FB6803F02003002B07D063
:102CCC007B681B686FF020021A61786800F042FA8A
:102CDC0000BF1037BD4680BD80B584B000AF7860B2
:102CEC0039600023FB737B6893F83C30012B01D1D6
:102CFC000223B4E07B68012283F83C207B6802222B
:102D0C0083F83D207B681B689B68BB60BB6823F025
:102D1C007703BB60BB6823F47F43BB607B681B6895
:102D2C00BA689A603B681B68B3F5005F3ED0B3F598
:102D3C00005F00F28780B3F5805F00F08680B3F50A
:102D4C00805F7FD8702B1AD0702B7BD8602B50D023
:102D5C00602B77D8502B3CD0502B73D8402B58D0AD
:102D6C00402B6FD8302B64D0302B6BD8202B60D0FD
:102D7C00202B67D8002B5CD0102B5AD062E07B68DC
:102D8C0018683B6899683B685A683B68DB6800F0D8
:102D9C006AF97B681B689B68BB60BB6843F0770370
:102DAC00BB607B681B68BA689A604FE07B681868E8
:102DBC003B6899683B685A683B68DB6800F053F9DC
:102DCC007B681B689A687B681B6842F480429A6037
:102DDC003CE07B6818683B6859683B68DB681A46BE
:102DEC0000F0CAF87B681B685021184600F021F9E6
:102DFC002CE07B6818683B6859683B68DB681A46AE
:102E0C0000F0E8F87B681B686021184600F011F9A7
:102E1C001CE07B6818683B6859683B68DB681A469D
:102E2C0000F0AAF87B681B684021184600F001F9F5
:102E3C000CE07B681A683B681B681946104600F06A
:102E4C00F8F803E00123FB7300E000BF7B6801226C
:102E5C0083F83D207B68002283F83C20FB7B1846DE
:102E6C001037BD4680BD80B483B000AF786000BF22
:102E7C000C37BD4680BC704780B483B000AF78601F
:102E8C0000BF0C37BD4680BC704780B483B000AF28
:102E9C00786000BF0C37BD4680BC704780B483B0EF
:102EAC0000AF786000BF0C37BD4680BC7047000097
:102EBC0080B485B000AF786039607B681B68FB60BC
:102ECC007B682B4A934207D07B68B3F1804F03D0C9
:102EDC007B68284A934208D1FB6823F07003FB609F
:102EEC003B685B68FA681343FB607B68204A93423B
:102EFC0007D07B68B3F1804F03D07B681D4A9342A7
:102F0C0008D1FB6823F44073FB603B68DB68FA680C
:102F1C001343FB60FB6823F080023B685B6913433F
:102F2C00FB607B68FA681A603B689A687B68DA62B7
:102F3C003B681A687B689A627B680D4A934203D19E
:102F4C003B681A697B681A637B6801225A617B684B
:102F5C001B6903F00103002B05D07B681B6923F070
:102F6C0001027B681A6100BF1437BD4680BC7047F4
:102F7C00002C01400004004080B487B000AFF86022
:102F8C00B9607A60FB681B6A7B61FB681B6A23F083
:102F9C000102FB681A62FB689B693B613B6923F089
:102FAC00F0033B617B681B013A6913433B617B690E
:102FBC0023F00A037B617A69BB6813437B61FB686E
:102FCC003A699A61FB687A691A6200BF1C37BD4680
:102FDC0080BC704780B487B000AFF860B9607A608D
:102FEC00FB681B6A7B61FB681B6A23F01002FB68A1
:102FFC001A62FB689B693B613B6923F470433B613C
:10300C007B681B033A6913433B617B6923F0A00384
:10301C007B61BB681B017A6913437B61FB683A696E
:10302C009A61FB687A691A6200BF1C37BD4680BC86
:10303C00704780B485B000AF786039607B689B685E
:10304C00FB60FB6823F07003FB603A68FB6813437A
:10305C0043F00703FB607B68FA689A6000BF143783
:10306C00BD4680BC704780B487B000AFF860B960D3
:10307C007A603B60FB689B687B617B6923F47F43D0
:10308C007B613B681A027B681A43BB6813437A69FD
:10309C0013437B61FB687A699A6000BF1C37BD469D
:1030AC0080BC704780B485B000AF786039607B68B5
:1030BC0093F83C30012B01D1022341E07B680122C3
:1030CC0083F83C207B68022283F83D207B681B68D8
:1030DC005B68FB607B681B689B68BB60FB6823F0CC
:1030EC007003FB603B681B68FA681343FB607B68EA
:1030FC001B68FA685A607B681B68144A934209D0B3
:10310C007B681B68B3F1804F04D07B681B68104A46
:10311C0093420CD1BB6823F08003BB603B685B68B7
:10312C00BA681343BB607B681B68BA689A607B689B
:10313C00012283F83D207B68002283F83C20002389
:10314C0018461437BD4680BC704700BF002C0140A8
:10315C000004004080B483B000AF786000BF0C372F
:10316C00BD4680BC704780B483B000AF786000BFB0
:10317C000C37BD4680BC704703460244934200D1D5
:10318C00704703F8011BF9E770B500260C4D0D4C88
:10319C00641BA410A64209D100F01AF800260A4DAF
:1031AC000A4C641BA410A64205D170BD55F8043B13
:1031BC0098470136EEE755F8043B98470136F2E79D
:1031CC001832000818320008183200081C320008A7
:1031DC00F8B500BFF8BC08BC9E467047F8B500BFF8
:0831EC00F8BC08BC9E467047C8
:1031F40000000000000000000102030406070809A3
:1032040002030405060708090A0B0C0D0E0F101023
:0432140001020000B3
:043218003101000878
:04321C000D01000898
:10322000010000000100000001000000010000009A
:10323000F401000001000000010000000100000096
:1032400001000000F4010000010000000100000086
:103250000100000001000000F40100000100000076
:103260000100000001000000040000000500000053
:1032700003000000020000000A00000000127A00B3
:08328000100000000100000035
:0400000508001B5D77
:00000001FF
