:020000040800F2
:100000000028002045250008CD240008D52400083C
:10001000DD240008E5240008ED24000800000000AD
:10002000000000000000000000000000F5240008AF
:1000300001250008000000000D2500081925000812
:100040008D2500088D2500088D2500088D250008C8
:100050008D2500088D2500088D2500088D250008B8
:100060008D2500088D2500088D2500088D250008A8
:100070008D2500088D2500088D2500088D25000898
:100080008D2500088D2500088D2500088D25000888
:100090008D2500088D2500088D2500088D25000878
:1000A0008D2500088D2500088D2500088D25000868
:1000B000252500088D250008000000008D2500087A
:1000C0008D25000800000000000000008D250008BC
:1000D000000000008D2500088D25000800000000AC
:1000E0008D2500088D2500088D25000800000000E2
:1000F0000000000000000000000000000000000000
:0C01000000000000000000005FF808F1A3
:1001100010B5054C237833B9044B13B10448AFF341
:1001200000800123237010BD70000020000000003B
:10013000C03C000808B5034B1BB103490348AFF3AB
:10014000008008BD0000000074000020C03C0008D2
:1001500081F0004102E000BF83F0004330B54FEA78
:1001600041044FEA430594EA050F08BF90EA020FE5
:100170001FBF54EA000C55EA020C7FEA645C7FEA78
:10018000655C00F0E2804FEA5454D4EB5555B8BF9B
:100190006D420CDD2C4480EA020281EA030382EA0C
:1001A000000083EA010180EA020281EA0303362D9E
:1001B00088BF30BD11F0004F4FEA01314FF4801C71
:1001C0004CEA113102D0404261EB410113F0004F83
:1001D0004FEA03334CEA133302D0524263EB43033A
:1001E00094EA050F00F0A780A4F10104D5F1200ED8
:1001F0000DDB02FA0EFC22FA05F2801841F1000133
:1002000003FA0EF2801843FA05F359410EE0A5F106
:1002100020050EF1200E012A03FA0EFC28BF4CF037
:10022000020C43FA05F3C01851EBE37101F00045ED
:1002300007D54FF0000EDCF1000C7EEB00006EEBFA
:100240000101B1F5801F1BD3B1F5001F0CD3490884
:100250005FEA30004FEA3C0C04F101044FEA4452DB
:1002600012F5800F80F09A80BCF1004F08BF5FEA62
:10027000500C50F1000041EB045141EA050130BD42
:100280005FEA4C0C404141EB0101013C28BFB1F554
:10029000801FE9D291F0000F04BF01460020B1FA9F
:1002A00081F308BF2033A3F10B03B3F120020CDA72
:1002B0000C3208DD02F1140CC2F10C0201FA0CF050
:1002C00021FA02F10CE002F11402D8BFC2F1200CB5
:1002D00001FA02F120FA0CFCDCBF41EA0C0190406B
:1002E000E41AA2BF01EB0451294330BD6FEA0404B4
:1002F0001F3C1CDA0C340EDC04F11404C4F120029F
:1003000020FA04F001FA02F340EA030021FA04F3B0
:1003100045EA030130BDC4F10C04C4F1200220FA07
:1003200002F001FA04F340EA0300294630BD21FA45
:1003300004F0294630BD94F0000F83F4801306BF0B
:1003400081F480110134013D4EE77FEA645C18BFFF
:100350007FEA655C29D094EA050F08BF90EA020F96
:1003600005D054EA000C04BF1946104630BD91EA8E
:10037000030F1EBF0021002030BD5FEA545C05D191
:100380004000494128BF41F0004130BD14F58004D0
:100390003CBF01F5801130BD01F0004545F0FE4144
:1003A00041F470014FF0000030BD7FEA645C1ABF79
:1003B000194610467FEA655C1CBF0B46024650EAB0
:1003C000013406BF52EA033591EA030F41F40021DC
:1003D00030BD00BF90F0000F04BF0021704730B562
:1003E0004FF4806404F132044FF000054FF0000137
:1003F00050E700BF90F0000F04BF0021704730B5F8
:100400004FF4806404F1320410F0004548BF4042CC
:100410004FF000013EE700BF42004FEAE2014FEA21
:1004200031014FEA02701FBF12F07F4393F07F4FFC
:1004300081F06051704732F07F4208BF704793F0FF
:100440007F4F04BF41F40021704730B54FF4607412
:1004500001F0004521F000411CE700BF50EA010215
:1004600008BF704730B54FF000050AE050EA0102BE
:1004700008BF704730B511F0004502D5404261EB2E
:1004800041014FF4806404F132045FEA915C3FF46F
:10049000D8AE4FF003025FEADC0C18BF03325FEA0C
:1004A000DC0C18BF033202EBDC02C2F1200300FABD
:1004B00003FC20FA02F001FA03FE40EA0E0021FAE2
:1004C00002F11444BDE600BF70B54FF0FF0C4CF4D0
:1004D000E06C1CEA11541DBF1CEA135594EA0C0F82
:1004E00095EA0C0F00F0DEF82C4481EA030621EABD
:1004F0004C5123EA4C5350EA013518BF52EA0335F8
:1005000041F4801143F4801338D0A0FB02CE4FF0A9
:100510000005E1FB02E506F00042E0FB03E54FF0D9
:100520000006E1FB03569CF0000F18BF4EF0010ED1
:10053000A4F1FF04B6F5007F64F5407404D25FEACD
:100540004E0E6D4146EB060642EAC62141EA555180
:100550004FEAC52040EA5E504FEACE2EB4F1FD0CC2
:1005600088BFBCF5E06F1ED8BEF1004F08BF5FEA40
:10057000500E50F1000041EB045170BD06F00046F2
:1005800046EA010140EA020081EA0301B4EB5C049F
:10059000C2BFD4EB0C0541EA045170BD41F4801197
:1005A0004FF0000E013C00F3AB8014F1360FDEBFBC
:1005B000002001F0004170BDC4F10004203C35DA98
:1005C0000C341BDC04F11404C4F1200500FA05F31B
:1005D00020FA04F001FA05F240EA020001F00042BC
:1005E00021F0004110EBD37021FA04F642EB060132
:1005F0005EEA430E08BF20EAD37070BDC4F10C045C
:10060000C4F1200500FA04F320FA05F001FA04F21F
:1006100040EA020001F0004110EBD37041F100010B
:100620005EEA430E08BF20EAD37070BDC4F1200516
:1006300000FA05F24EEA020E20FA04F301FA05F27E
:1006400043EA020321FA04F001F0004121FA04F226
:1006500020EA020000EBD3705EEA430E08BF20EAF6
:10066000D37070BD94F0000F0FD101F00046400030
:1006700041EB010111F4801F08BF013CF7D041EAB2
:10068000060195F0000F18BF704703F000465200B6
:1006900043EB030313F4801F08BF013DF7D043EA87
:1006A0000603704794EA0C0F0CEA135518BF95EA3D
:1006B0000C0F0CD050EA410618BF52EA4306D1D1C4
:1006C00081EA030101F000414FF0000070BD50EAE3
:1006D000410606BF1046194652EA430619D094EA6D
:1006E0000C0F02D150EA013613D195EA0C0F05D157
:1006F00052EA03361CBF104619460AD181EA0301AB
:1007000001F0004141F0FE4141F470014FF0000062
:1007100070BD41F0FE4141F4780170BD70B54FF0FD
:10072000FF0C4CF4E06C1CEA11541DBF1CEA13557D
:1007300094EA0C0F95EA0C0F00F0A7F8A4EB05045F
:1007400081EA030E52EA03354FEA013100F0888056
:100750004FEA03334FF0805545EA131343EA12631F
:100760004FEA022245EA111545EA10654FEA0026D4
:100770000EF000419D4208BF964244F1FD0404F58D
:10078000407402D25B084FEA3202B61A65EB0305E9
:100790005B084FEA32024FF480104FF4002CB6EBA6
:1007A000020E75EB030E22BFB61A754640EA0C0026
:1007B0005B084FEA3202B6EB020E75EB030E22BF66
:1007C000B61A754640EA5C005B084FEA3202B6EBA7
:1007D000020E75EB030E22BFB61A754640EA9C0066
:1007E0005B084FEA3202B6EB020E75EB030E22BF36
:1007F000B61A754640EADC0055EA060E18D04FEAF4
:10080000051545EA16754FEA06164FEAC30343EA93
:1008100052734FEAC2025FEA1C1CC0D111F4801F60
:100820000BD141EA00014FF000004FF0004CB6E759
:1008300011F4801F04BF01430020B4F1FD0C88BFF8
:10084000BCF5E06F3FF6AFAEB5EB030C04BFB6EB03
:10085000020C5FEA500C50F1000041EB045170BDF6
:100860000EF0004E4EEA113114EB5C04C2BFD4EB23
:100870000C0541EA045170BD41F480114FF0000EA7
:10088000013C90E645EA060E8DE60CEA135594EA23
:100890000C0F08BF95EA0C0F3FF43BAF94EA0C0F26
:1008A0000AD150EA01347FF434AF95EA0C0F7FF49B
:1008B00025AF104619462CE795EA0C0F06D152EAEF
:1008C00003353FF4FDAE1046194622E750EA4106D3
:1008D00018BF52EA43067FF4C5AE50EA41047FF4E4
:1008E0000DAF52EA43057FF4EBAE12E74FF0FF3C49
:1008F00006E000BF4FF0010C02E000BF4FF0010C1A
:100900004DF804CD4FEA410C7FEA6C5C4FEA430C92
:1009100018BF7FEA6C5C1BD001B050EA410C0CBFE1
:1009200052EA430C91EA030F02BF90EA020F002043
:10093000704710F1000F91EA030F58BF994208BFAA
:1009400090422CBFD8176FEAE37040F00100704767
:100950004FEA410C7FEA6C5C02D150EA013C07D1BE
:100960004FEA430C7FEA6C5CD6D152EA033CD3D009
:100970005DF8040B704700BF8446104662468C4603
:100980001946634600E000BF01B5FFF7B7FF002836
:1009900048BF10F1000F01BD4DF808EDFFF7F4FF5F
:1009A0000CBF012000205DF808FB00BF4DF808EDEA
:1009B000FFF7EAFF34BF012000205DF808FB00BF0D
:1009C0004DF808EDFFF7E0FF94BF012000205DF82F
:1009D00008FB00BF4DF808EDFFF7CEFF94BF0120E4
:1009E00000205DF808FB00BF4DF808EDFFF7C4FFDD
:1009F00034BF012000205DF808FB00BF4FEA410230
:100A000012F5001215D211D56FF47873B3EB625260
:100A100012D94FEAC12343F0004343EA505311F087
:100A2000004F23FA02F018BF404270474FF0000019
:100A3000704750EA013005D111F0004008BF6FF057
:100A4000004070474FF00000704700BF80B582B093
:100A500000AF78607B68002BC0F29C817B68092B1B
:100A600000F398817B68092B00F2968101A252F86D
:100A700023F000BF9D0A0008E90A0008350B0008B2
:100A8000810B0008CD0B0008190C0008650C00084C
:100A9000B10C0008FD0C0008490D000800220121DE
:100AA000BF4802F078F800220221BD4802F073F836
:100AB00000220421BA4802F06EF800220821B8484A
:100AC00002F069F800221021B54802F064F8002213
:100AD0004FF48071B24802F05EF801224FF40071C9
:100AE000AF4802F058F858E101220121AC4802F069
:100AF00052F800220221AA4802F04DF800220421F7
:100B0000A74802F048F801220821A54802F043F85E
:100B100001221021A24802F03EF801224FF4807118
:100B20009F4802F038F801224FF400719C4802F00F
:100B300032F832E100220121994802F02CF800221B
:100B40000221974802F027F801220421944802F07C
:100B500022F800220821924802F01DF800221021FC
:100B60008F4802F018F801224FF480718C4802F08F
:100B700012F800224FF40071894802F00CF80CE1E1
:100B800000220121864802F006F800220221844852
:100B900002F001F800220421814801F0FCFF00224C
:100BA00008217F4801F0F7FF012210217C4801F065
:100BB000F2FF01224FF48071794801F0ECFF00222E
:100BC0004FF40071764801F0E6FFE6E001220121D2
:100BD000734801F0E0FF00220221714801F0DBFFC1
:100BE000002204216E4801F0D6FF012208216C4842
:100BF00001F0D1FF01221021694801F0CCFF002251
:100C00004FF48071664801F0C6FF00224FF4007176
:100C1000634801F0C0FFC0E000220121604801F0FC
:100C2000BAFF012202215E4801F0B5FF0022042133
:100C30005B4801F0B0FF00220821594801F0ABFFEA
:100C400001221021564801F0A6FF00224FF48071C6
:100C5000534801F0A0FF00224FF40071504801F00A
:100C60009AFF9AE0002201214D4801F094FF0122F1
:100C700002214B4801F08FFF00220421484801F077
:100C80008AFF00220821464801F085FF002210213A
:100C9000434801F080FF00224FF48071404801F08A
:100CA0007AFF00224FF400713D4801F074FF74E0B8
:100CB000002201213A4801F06EFF0022022138484B
:100CC00001F069FF00220421354801F064FF012290
:100CD0000821334801F05FFF01221021304801F064
:100CE0005AFF01224FF480712D4801F054FF012278
:100CF0004FF400712A4801F04EFF4EE0002201211E
:100D0000274801F048FF00220221254801F043FF57
:100D100000220421224801F03EFF00220821204841
:100D200001F039FF002210211D4801F034FF00229C
:100D30004FF480711A4801F02EFF00224FF4007129
:100D4000174801F028FF28E000220121144801F093
:100D500022FF00220221124801F01DFF002204217F
:100D60000F4801F018FF002208210D4801F013FF81
:100D7000012210210A4801F00EFF00224FF4807179
:100D8000074801F008FF00224FF40071044801F009
:100D900002FF02E000BF00E000BF0837BD4680BD93
:100DA0000008014080B582B000AF78607B68002BFE
:100DB000C0F2B0817B68092B00F3AC817B68092B02
:100DC00000F2AA8101A252F823F000BFF50D00083D
:100DD000450E0008950E0008E50E0008350F0008C6
:100DE000850F0008D50F00082510000875100008B1
:100DF000C510000800222021C94801F0CCFE0022C5
:100E00004021C74801F0C7FE00228021C44801F0FC
:100E1000C2FE00224FF48071C14801F0BCFE0022E6
:100E20004FF40071BE4801F0B6FE00224FF40051AD
:100E3000BB4801F0B0FE01224FF48041B84801F0F8
:100E4000AAFE6AE101222021B54801F0A4FE002299
:100E50004021B34801F09FFE00228021B04801F0FC
:100E60009AFE01224FF48071AD4801F094FE0122F8
:100E70004FF40071AA4801F08EFE01224FF4005198
:100E8000A74801F088FE01224FF48041A44801F0F8
:100E900082FE42E100222021A14801F07CFE0022D6
:100EA00040219F4801F077FE012280219C4801F0FB
:100EB00072FE00224FF48071994801F06CFE00220E
:100EC0004FF40071964801F066FE01224FF4005184
:100ED000934801F060FE00224FF48041904801F0F9
:100EE0005AFE1AE1002220218D4801F054FE002212
:100EF00040218B4801F04FFE00228021884801F0FC
:100F00004AFE00224FF48071854801F044FE012220
:100F10004FF40071824801F03EFE01224FF400516F
:100F20007F4801F038FE00224FF480417C4801F0F8
:100F300032FEF2E001222021794801F02CFE00224D
:100F40004021774801F027FE00228021744801F0FB
:100F500022FE01224FF48071714801F01CFE012233
:100F60004FF400716E4801F016FE00224FF400515C
:100F70006B4801F010FE00224FF48041684801F0F8
:100F80000AFECAE000222021654801F004FE012289
:100F90004021634801F0FFFD00228021604801F0FC
:100FA000FAFD00224FF480715D4801F0F4FD01224A
:100FB0004FF400715A4801F0EEFD00224FF4005149
:100FC000574801F0E8FD00224FF48041544801F0F9
:100FD000E2FDA2E000222021514801F0DCFD0122C7
:100FE00040214F4801F0D7FD002280214C4801F0FC
:100FF000D2FD00224FF48071494801F0CCFD00225F
:101000004FF40071464801F0C6FD00224FF4005134
:10101000434801F0C0FD00224FF48041404801F0F8
:10102000BAFD7AE0002220213D4801F0B4FD002203
:1010300040213B4801F0AFFD00228021384801F0FB
:10104000AAFD01224FF48071354801F0A4FD012270
:101050004FF40071324801F09EFD01224FF400511F
:101060002F4801F098FD01224FF480412C4801F0F7
:1010700092FD52E000222021294801F08CFD00223F
:101080004021274801F087FD00228021244801F0FB
:1010900082FD00224FF48071214801F07CFD002286
:1010A0004FF400711E4801F076FD00224FF400510C
:1010B0001B4801F070FD00224FF48041184801F0F8
:1010C0006AFD2AE000222021154801F064FD00227B
:1010D0004021134801F05FFD00228021104801F0FB
:1010E0005AFD00224FF480710D4801F054FD012299
:1010F0004FF400710A4801F04EFD00224FF40051F8
:10110000074801F048FD00224FF48041044801F0F7
:1011100042FD02E000BF00E000BF0837BD4680BDD1
:10112000000C014080B584B000AF78607B68002B74
:1011300062DB7B68632B5FDC314B1B68002B03D1C8
:10114000304B1B68012B58D12D4B00221A606520B3
:1011500001F0CEF87B68092B0FDC00224FF4806190
:10116000294801F018FD00224FF40061264801F0E3
:1011700012FD7868FFF76AFC3FE0244B1B68002BE8
:101180001AD17B68224A82FB03129210DB17D31A12
:10119000BB6000224FF480611B4801F0FCFC01227F
:1011A0004FF40061184801F0F6FCB868FFF74EFCF8
:1011B000164B01221A6020E07A68154B83FB02135C
:1011C0009910D317C91A0B469B000B445B00D31A26
:1011D000FB6000224FF400610B4801F0DCFC0122AF
:1011E0004FF48061084801F0D6FCF868FFF72EFC48
:1011F000064B00221A6000E000BF1037BD4680BDDC
:10120000000000202C010020000801408C0000207C
:101210006766666680B584B000AF78607B68002B37
:1012200062DB7B68632B5FDC314B1B68002B03D1D7
:10123000304B1B68012B58D12D4B00221A606520C2
:1012400001F03CF87B68092B0FDC00224FF4805141
:10125000294801F0A0FC00224FF40041264801F08B
:101260009AFC7868FFF79EFD3FE0244B1B68002B3B
:101270001AD17B68224A82FB03129210DB17D31A21
:10128000BB6000224FF480511B4801F084FC012216
:101290004FF40041184801F07EFCB868FFF782FD6A
:1012A000164B01221A6020E07A68154B83FB02136B
:1012B0009910D317C91A0B469B000B445B00D31A35
:1012C000FB6000224FF400410B4801F064FC012256
:1012D0004FF48051084801F05EFCF868FFF762FDAA
:1012E000064B00221A6000E000BF1037BD4680BDEB
:1012F0000400002028010020000801409000002088
:101300006766666680B400AF064B1B68012B04D18C
:10131000044B00221A60012300E000231846BD465A
:1013200080BC70479800002080B400AF064B1B685B
:10133000012B04D1044B00221A60012300E000239A
:101340001846BD4680BC7047A000002080B400AFA6
:10135000064B1B68012B04D1044B00221A600123A9
:1013600000E000231846BD4680BC7047A80000205E
:1013700080B500AF694B1B68694A1360694B1B68F5
:10138000664A13602021684801F0EEFB03461A46C6
:10139000644B1A60614B1A68614B1B689A422FD1EB
:1013A0005E4B1A685F4B1B689A4229D15D4B1A68E5
:1013B0005E4B1B689A420FD05A4B1B685B4A136006
:1013C0005A4B1B68002B1BD1594B4FF4FA721A6011
:1013D000584B01221A6013E0554B1B68013B544ADD
:1013E0001360534B1B68002B0AD1514B4FF4FA7218
:1013F0001A604E4B1B68002B02D14F4B01221A6022
:101400004E4B1B684E4A13604E4B1B684B4A136091
:101410004021454801F0A8FB03461A46494B1A6093
:10142000464B1A68464B1B689A422FD1434B1A68A9
:10143000444B1B689A4229D1424B1A68424B1B68A5
:101440009A420FD03F4B1B683F4A13603E4B1B68CC
:10145000002B1BD13D4B4FF4FA721A603C4B01221A
:101460001A6013E0394B1B68013B384A1360374B55
:101470001B68002B0AD1354B4FF4FA721A60324BBD
:101480001B68002B02D1334B01221A60324B1B68C0
:10149000324A1360324B1B682F4A13608021224866
:1014A00001F062FB03461A462D4B1A602A4B1A685C
:1014B0002A4B1B689A422FD1274B1A68284B1B686E
:1014C0009A4229D1264B1A68264B1B689A420FD0A4
:1014D000234B1B68234A1360224B1B68002B1BD134
:1014E000214B4FF4FA721A60204B01221A6013E06C
:1014F0001D4B1B68013B1C4A13601B4B1B68002BD8
:101500000AD1194B4FF4FA721A60164B1B68002B64
:1015100002D1174B01221A6000BF80BD0C000020D1
:1015200008000020100000200008014014000020E6
:1015300018000020980000209400002020000020C7
:101540001C00002024000020280000202C00002087
:10155000A00000209C00002034000020300000206B
:10156000380000203C00002040000020A80000209F
:10157000A400002080B500AFA04B1B68032B00F235
:10158000338101A252F823F0991500081F160008B4
:10159000B91600085117000800220121984801F0EF
:1015A000FAFA00224FF40061954801F0F4FA0022A3
:1015B0004FF48051924801F0EEFA00224FF480611E
:1015C000904801F0E8FA00224FF400618D4801F0E4
:1015D000E2FA00224FF480518A4801F0DCFA00223E
:1015E0004FF40041874801F0D6FA844B01221A607B
:1015F000854B1B68854A1360844B1B681846FFF7B0
:1016000091FD814B1B684FF47A7202FB03F318467D
:1016100000F0ECFD4FF47A7000F002FEEBE00122E6
:101620000121774801F0B7FA00224FF400617448B5
:1016300001F0B1FA00224FF48051714801F0ABFA89
:10164000724B1B681846FFF76DFD714B1B68012B31
:1016500008D14FF47A7000F0E3FD6C4B1B68013B3E
:101660006A4A1360FFF74EFE0346012B05D1634B18
:101670000A221A60674B0A221A60674B1B68012B0B
:1016800040F0B4805D4B02221A60644B1B684FF43B
:101690007A7202FB03F3184600F0A8FD5F4B1B684B
:1016A0005A4A1360594B1B681846FFF73BFD4FF42D
:1016B0007A7000F0B5FD99E000220121504801F058
:1016C0006AFA01224FF400614D4801F064FA0022E9
:1016D0004FF480514A4801F05EFA4C4B1B681846A3
:1016E000FFF720FD4A4B1B68012B08D14FF47A709D
:1016F00000F096FD454B1B68013B444A1360FFF721
:1017000001FE0346012B05D13C4B0A221A60414BD6
:101710000A221A60404B1B68012B69D1374B032208
:101720001A603F4B1B684FF47A7202FB03F31846B2
:1017300000F05CFD3A4B1B68344A1360334B1B6866
:101740001846FFF7EFFC4FF47A7000F069FD4FE0A8
:10175000002201212A4801F01EFA00224FF4006104
:10176000274801F018FA01224FF48051244801F073
:1017700012FA264B1B681846FFF7D4FC244B1B6853
:10178000012B08D14FF47A7000F04AFD1F4B1B6803
:10179000013B1E4A1360FFF7B5FD0346012B05D13F
:1017A000164B0A221A601B4B0A221A601A4B1B683E
:1017B000012B1FD1114B01221A60134B1B684FF4F0
:1017C0007A7202FB03F3184600F010FD0E4B1B6803
:1017D0000E4A13600D4B1B681846FFF7A3FC4FF42D
:1017E0007A7000F01DFD05E000BF04E000BF02E0DC
:1017F00000BF00E000BF00BF80BD00BFB4000020FC
:10180000000C01400008014054000020AC00002002
:101810001C0100205000002018010020580000206A
:101820005C00002080B500AF804B1B68043B032B9D
:1018300000F2F38001A252F823F000BF4D18000817
:101840009D1900089F1800081F1900080022022196
:10185000774801F0A0F900220821754801F09BF9B2
:1018600000221021724801F096F9704B06221A608E
:10187000704B1B68704A13606F4B1B681846FFF76C
:10188000C9FC6C4B1B684FF47A7202FB03F31846D9
:1018900000F0E0FC4FF47A7000F0F6FCC4E00122A6
:1018A0000221634801F077F900220821604801F025
:1018B00072F9002210215E4801F06DF95F4B1B6840
:1018C000012B08D14FF47A7000F0DEFC5A4B1B68F4
:1018D000013B594A1360584B1B681846FFF79AFCA6
:1018E000574B1B68012B40F09A80504B07221A601F
:1018F000544B1B684FF47A7202FB03F3184600F056
:10190000A9FC504B1B684C4A13604B4B1B68184694
:10191000FFF780FC4FF47A7000F0B6FC7FE0002205
:101920000221434801F037F901220821404801F023
:1019300032F9002210213E4801F02DF93F4B1B687F
:10194000012B08D14FF47A7000F09EFC3A4B1B68D3
:10195000013B394A1360384B1B681846FFF75AFCA5
:10196000374B1B68012B5CD1304B05221A60364B7C
:101970001B684FF47A7202FB03F3184600F06AFC0E
:10198000314B1B682C4A13602B4B1B681846FFF722
:1019900041FC4FF47A7000F077FC42E00022022113
:1019A000234801F0F8F800220821214801F0F3F85B
:1019B000012210211E4801F0EEF8204B1B68012B7C
:1019C00008D14FF47A7000F05FFC1B4B1B68013BA1
:1019D000194A1360184B1B681846FFF71BFC184B7D
:1019E0001B68012B1FD1114B06221A60114B1B687B
:1019F0004FF47A7202FB03F3184600F02BFC0D4BF8
:101A00001B680D4A13600C4B1B681846FFF702FC5D
:101A10004FF47A7000F038FC05E000BF04E000BF2E
:101A200002E000BF00E000BF00BF80BD500000200A
:101A3000000C014058000020B000002024010020CC
:101A4000200100205C0000205400002080B582B0FE
:101A500000AF78607B68012B22D0134A7B6813604B
:101A60007868FEF7C7FC4FF000024FF08043FEF7A6
:101A700055FE02460B461046194602F0A5F80246EE
:101A80000B4610461946FEF7B9FF0346074A136096
:101A9000054B1A68054B1B68D31A054A136000E012
:101AA00000BF0837BD4680BD54000020580000200C
:101AB0005C00002080B582B000AF78607B68632B4B
:101AC00031D01B4A7B6813607868FEF793FC4FF0B7
:101AD0000002184BFEF7F8FC02460B46104619466A
:101AE0004FF00002144BFEF719FE02460B4610465B
:101AF000194602F069F802460B4610461946FEF7F1
:101B00007DFF03460D4A13600C4B1B68632B02DDFF
:101B10000A4B63221A60094B1A68054B1B68D31ADB
:101B2000074A136000E000BF0837BD4680BD00BF14
:101B3000580000200000144000000840540000201D
:101B40005C00002080B582B000AF78607B68632BBA
:101B500032D01B4A7B6813607868FEF74BFC4FF06D
:101B60000002184BFEF7B0FC02460B461046194621
:101B70004FF000024FF08043FEF7D0FD02460B46C7
:101B80001046194602F020F802460B461046194648
:101B9000FEF734FF03460C4A13600B4B1B68632BA4
:101BA00002DD094B63221A60074B1A68044B1B685D
:101BB000D31A064A136000E000BF0837BD4680BD57
:101BC0005C00002000001440540000205800002059
:101BD00080B500AFAD4B1B680A3B042B00F2CF81F0
:101BE00001A252F823F000BFFD1B0008831C00086F
:101BF000D71C0008B11D0008AD1E000800220121FD
:101C0000A34800F0C8FF00224FF40061A04800F094
:101C1000C2FF00224FF480519D4800F0BCFF00221B
:101C200002219B4800F0B7FF00220821984800F0ED
:101C3000B2FF00221021964800F0ADFF01224FF4C0
:101C40008051944800F0A7FF01224FF400419148D1
:101C500000F0A1FF00224FF480618E4800F09BFF4E
:101C600000224FF400618B4800F095FF874B0B2258
:101C70001A6040F6B83000F0B9FAFA2000F0D0FA55
:101C800086E10120FEF7E2FEFFF73CFB0346012B55
:101C900009D17E4B0C221A6042F2107000F0A6FAB5
:101CA000FA2000F0BDFA7C4B1B68012B40F06981E3
:101CB000764B00221A60794B04221A6000224FF4FE
:101CC0008051744800F067FF00224FF400417148D2
:101CD00000F061FF55E10220FEF7B8FE704B1B6873
:101CE000012B20D101216A4800F06DFF10216848C6
:101CF00000F069FF00220221654800F04CFF00223D
:101D00000821634800F047FF00224FF4006160485B
:101D100000F041FF00224FF480515D4800F03BFF8E
:101D2000FA2000F07DFAFFF7EDFA0346012B09D106
:101D3000564B0D221A6042F2107000F057FAFA204A
:101D400000F06EFAFFF7F0FA0346012B0FD1554B66
:101D50001B680133534A1360524B1B68632B02DD2F
:101D6000504B01221A6042F2107000F03FFA4D4BC6
:101D70001B681846FFF74EFAFFF7E8FA0346012BF7
:101D80000AD1484B1B681846FFF760FE3F4B002204
:101D90001A60424B04221A603F4B1B68012B40F033
:101DA000F2803A4B00221A603C4B04221A60EAE0AF
:101DB0000320FEF74BFE3A4B1B68012B20D1082174
:101DC000334800F000FF4FF48051314800F0FBFE33
:101DD000002201212E4800F0DEFE002202212C48C4
:101DE00000F0D9FE00221021294800F0D4FE002284
:101DF0004FF40061264800F0CEFEFA2000F010FA01
:101E0000FFF780FA0346012B09D1204B0E221A60FE
:101E100042F2107000F0EAF9FA2000F001FAFFF740
:101E200083FA0346012B0FD11F4B1B6801331E4A57
:101E300013601D4B1B68632B02DD1B4B01221A60D4
:101E400042F2107000F0D2F9174B1B681846FFF7EA
:101E5000E1F9FFF77BFA0346012B0AD1124B1B680D
:101E60001846FFF76FFE094B00221A600B4B042245
:101E70001A60094B1B68012B40F08780034B00223E
:101E80001A60064B04221A607FE000BFB4000020F5
:101E9000000C014000080140180100205000002003
:101EA0001C010020440000204C0000200420FEF70C
:101EB000CDFD384B1B68012B20D14FF40061364813
:101EC00000F081FE0221344800F07DFE0022012155
:101ED000314800F060FE002208212F4800F05BFE30
:101EE000002210212C4800F056FE00224FF48051B1
:101EF000294800F050FEFA2000F092F9FFF702FAAC
:101F00000346012B06D1254B0A221A6040F6B83051
:101F100000F06CF9FFF708FA0346012B0FD1204BB4
:101F20001B6801331E4A13601D4B1B68632B02DDC7
:101F30001B4B01221A6042F2107000F057F9184B47
:101F40001B681846FFF766F9FFF700FA0346012BF6
:101F50000AD1134B1B681846FFF7ACFD0F4B00224C
:101F60001A60104B04221A600F4B1B68012B0ED114
:101F70000A4B00221A600B4B04221A6007E000BFD4
:101F800006E000BF04E000BF02E000BF00E000BFC9
:101F900000BF80BD1C010020000C0140B4000020E7
:101FA00048000020500000201801002080B500AF3C
:101FB00000F0EEFA00F012F800F098F800F04AF89D
:101FC000054801F047FAFFF7D5FAFFF72BFCFFF7BA
:101FD000FFFD00BFF7E700BFB800002080B590B05C
:101FE00000AF07F1180328220021184601F0BEFDBA
:101FF0003B1D00221A605A609A60DA601A6102235F
:10200000BB610123BB621023FB6200237B6307F1EA
:102010001803184600F0F0FD0346002B01D000F035
:10202000DFF80F237B600023BB600023FB600023ED
:102030003B6100237B613B1D0021184601F05EF8E7
:102040000346002B01D000F0CBF800BF4037BD465F
:1020500080BD000080B586B000AF07F10803002204
:102060001A605A609A60DA603B4600221A605A6031
:102070001D4B4FF080421A601B4B41F63F725A6075
:10208000194B00229A60184B0922DA60164B002285
:102090001A61154B00229A61134801F08BF903462F
:1020A000002B01D000F09CF84FF48053BB6007F187
:1020B000080319460C4801F009FB0346002B01D028
:1020C00000F08EF800233B6000237B603B461946FE
:1020D000054801F0E1FC0346002B01D000F080F838
:1020E00000BF1837BD4680BDB800002080B588B05D
:1020F00000AF07F1100300221A605A609A60DA609C
:102100002E4B9B692D4A43F0200393612B4B9B6917
:1021100003F02003FB60FB68284B9B69274A43F0D0
:1021200004039361254B9B6903F00403BB60BB6808
:10213000224B9B69214A43F0080393611F4B9B6923
:1021400003F008037B607B68002249F61F711C487E
:1021500000F021FD002247F6FB311A4800F01BFD7C
:1021600049F61F733B6101237B610023BB6102239E
:10217000FB6107F110031946114800F079FBE023D9
:102180003B6100237B610123BB6107F1100319460A
:102190000B4800F06DFB47F6FB333B6101237B618D
:1021A0000023BB610223FB6107F1100319460548B8
:1021B00000F05EFB00BF2037BD4680BD001002402E
:1021C00000080140000C014080B582B000AF78608B
:1021D000FFF7CEF800F0A6F800BF0837BD4680BD77
:1021E00080B400AF72B600BF00BFFDE780B483B01B
:1021F00000AF7860074B1B687A6892FBF3F3064ADE
:102200001360064B00221A6000BF0C37BD4680BC2D
:10221000704700BF6000002000010020180100206E
:1022200080B483B000AF7860074B1B687A6892FB7C
:10223000F3F3064A1360064B00221A6000BF0C3706
:10224000BD4680BC704700BF600000200401002034
:102250001C01002080B483B000AF7860074B1B687E
:102260007A6892FBF3F3064A1360064B00221A6069
:1022700000BF0C37BD4680BC704700BF6000002027
:10228000080100202001002080B483B000AF7860F6
:10229000074B1B687A6892FBF3F3064A1360064B00
:1022A00000221A6000BF0C37BD4680BC704700BFDB
:1022B000600000200C0100202401002080B483B0C5
:1022C00000AF7860074B1B687A6892FBF3F3064A0D
:1022D0001360064B00221A6000BF0C37BD4680BC5D
:1022E000704700BF6000002010010020280100207E
:1022F00080B483B000AF7860074B1B687A6892FBAC
:10230000F3F3064A1360064B00221A6000BF0C3735
:10231000BD4680BC704700BF600000201401002053
:102320002C01002080B400AF314B1B68002B0BDD6B
:102330002F4B1B68013B2E4A13602D4B1B68002B53
:1023400002D12C4B01221A602B4B1B68002B0BDD9A
:10235000294B1B68013B284A1360274B1B68002B45
:1023600002D1264B01221A60254B1B68002B0BDD86
:10237000234B1B68013B224A1360214B1B68002B37
:1023800002D1204B01221A601F4B1B68002B0BDD72
:102390001D4B1B68013B1C4A13601B4B1B68002B29
:1023A00002D11A4B01221A60194B1B68002B0BDD5E
:1023B000174B1B68013B164A1360154B1B68002B1B
:1023C00002D1144B01221A60134B1B68002B0BDD4A
:1023D000114B1B68013B104A13600F4B1B68002B0D
:1023E00002D10E4B01221A6000BFBD4680BC70476F
:1023F0000001002018010020040100201C01002021
:1024000008010020200100200C01002024010020F0
:102410001001002028010020140100202C010020C0
:1024200080B485B000AF154B9B69144A43F001039B
:102430009361124B9B6903F00103BB60BB680F4BB8
:10244000DB690E4A43F08053D3610C4BDB6903F028
:1024500080537B607B680A4B5B68FB60FB6823F002
:10246000E063FB60FB6843F00073FB60044AFB68B9
:10247000536000BF1437BD4680BC70470010024057
:102480000000014080B584B000AF78607B681B68B5
:10249000B3F1804F13D10C4BDB690B4A43F00103BE
:1024A000D361094BDB6903F00103FB60FB68002289
:1024B00000211C2000F0A5F91C2000F0BEF900BF8F
:1024C0001037BD4680BD00BF0010024080B400AF91
:1024D00000BFFDE780B400AF00BFFDE780B400AFF0
:1024E00000BFFDE780B400AF00BFFDE780B400AFE0
:1024F00000BFFDE780B400AF00BFBD4680BC7047A1
:1025000080B400AF00BFBD4680BC704780B400AF50
:1025100000BFBD4680BC704780B500AF00F07EF8BC
:1025200000BF80BD80B500AF024800F0DFFF00BFF4
:1025300080BD00BFB800002080B400AF00BFBD4622
:1025400080BC7047FFF7F8FF0B480C490C4A00238A
:1025500002E0D458C4500433C4188C42F9D3094A59
:10256000094C002301E013600432A242FBD301F0C6
:1025700005FBFFF71BFD70470000002070000020E6
:10258000043D00087000002034010020FEE7000038
:1025900080B500AF084B1B68074A43F01003136077
:1025A000032000F023F90F2000F008F8FFF738FFB0
:1025B0000023184680BD00BF0020024080B582B0D5
:1025C00000AF7860124B1A68124B1B7819464FF413
:1025D0007A73B3FBF1F3B2FBF3F3184600F03BF967
:1025E0000346002B01D001230EE07B680F2B0AD895
:1025F000002279684FF0FF3000F003F9064A7B684B
:102600001360002300E0012318460837BD4680BD53
:10261000640000206C0000206800002080B400AF3F
:10262000054B1B781A46054B1B681344034A13607D
:1026300000BFBD4680BC70476C0000203001002008
:1026400080B400AF024B1B681846BD4680BC704783
:102650003001002080B485B000AF78607B6803F063
:102660000703FB600C4BDB68BB60BA684FF6FF03E7
:102670001340BB60FB681A02BB68134343F0BF639F
:1026800043F40033BB60044ABB68D36000BF143717
:10269000BD4680BC704700BF00ED00E080B400AFD5
:1026A000044BDB681B0A03F007031846BD4680BCD9
:1026B000704700BF00ED00E080B483B000AF034678
:1026C000FB7197F90730002B0BDBFB7903F01F023E
:1026D000064997F907305B09012000FA02F241F838
:1026E000232000BF0C37BD4680BC704700E100E0EE
:1026F00080B483B000AF03463960FB7197F90730AF
:10270000002B0ADB3B68DAB20C4997F9073012015B
:10271000D2B20B4483F800230AE03B68DAB20849DE
:10272000FB7903F00F03043B1201D2B20B441A767B
:1027300000BF0C37BD4680BC704700BF00E100E021
:1027400000ED00E080B489B000AFF860B9607A6055
:10275000FB6803F00703FB61FB69C3F10703042B6C
:1027600028BF0423BB61FB690433062B02D9FB6934
:10277000033B00E000237B614FF0FF32BB6902FAAC
:1027800003F3DA43BB681A407B699A404FF0FF318C
:102790007B6901FA03F3D9437B680B401343184666
:1027A0002437BD4680BC704780B582B000AF7860EA
:1027B0007B68013BB3F1807F01D301230FE00A4A1C
:1027C0007B68013B53600F214FF0FF30FFF790FF14
:1027D000054B00229A60044B07221A60002318461A
:1027E0000837BD4680BD00BF10E000E080B582B074
:1027F00000AF78607868FFF72DFF00BF0837BD464F
:1028000080BD80B586B000AF0346B9607A60FB73C7
:1028100000237B61FFF742FF78617A68B9687869C5
:10282000FFF790FF024697F90F3011461846FFF761
:102830005FFF00BF1837BD4680BD80B582B000AFD6
:102840000346FB7197F907301846FFF735FF00BFC5
:102850000837BD4680BD80B582B000AF786078682B
:10286000FFF7A2FF034618460837BD4680BD0000AB
:1028700080B48BB000AF7860396000237B620023A6
:102880003B6261E101227B6A02FA03F3FB613B6870
:102890001B68FA691340BB61BA69FB699A4240F050
:1028A00050813B685B68974A93425ED0954A934259
:1028B00075D8954A934258D0934A93426FD8934A19
:1028C000934252D0914A934269D8914A93424CD054
:1028D0008F4A934263D88F4A934246D08D4A93429F
:1028E0005DD8122B2AD8122B59D801A252F823F006
:1028F0006B29000845290008572900089929000874
:102900009F2900089F2900089F2900089F29000887
:102910009F2900089F2900089F2900089F29000877
:102920009F2900089F2900089F2900089F29000867
:102930009F2900084D29000861290008764A934222
:1029400013D02CE03B68DB683B6229E03B68DB6826
:1029500004333B6224E03B68DB6808333B621FE0E2
:102960003B68DB680C333B621AE03B689B68002BDA
:1029700002D104233B6213E03B689B68012B05D125
:1029800008233B627B68FA691A6109E008233B620D
:102990007B68FA695A6103E000233B6200E000BFF4
:1029A000BB69FF2B01D87B6801E07B6804337B6146
:1029B000BB69FF2B02D87B6A9B0002E07B6A083B65
:1029C0009B003B617B691A680F213B6901FA03F3A5
:1029D000DB431A40396A3B6901FA03F31A437B6906
:1029E0001A603B685B6803F08053002B00F0A980FD
:1029F0004A4B9B69494A43F001039361474B9B69EA
:102A000003F00103BB60BB68454A7B6A9B08023345
:102A100052F82330FB607B6A03F003039B000F2214
:102A200002FA03F3DB43FA681340FB607B683D4A1C
:102A300093420DD07B683C4A934207D07B683B4A67
:102A4000934201D1022304E0032302E0012300E0CA
:102A500000237A6A02F0030292009340FA6813435B
:102A6000FB602F497B6A9B080233FA6841F82320F8
:102A70003B685B6803F48013002B06D02C4B9A68EC
:102A80002B49BB6913438B6006E0294B9A68BB69ED
:102A9000DB43274913408B603B685B6803F40013FA
:102AA000002B06D0224BDA682149BB691343CB6067
:102AB00006E01F4BDA68BB69DB431D491340CB605E
:102AC0003B685B6803F40033002B06D0184B5A6850
:102AD0001749BB6913434B6006E0154B5A68BB6945
:102AE000DB43134913404B603B685B6803F480335E
:102AF000002B1FD00E4B1A680D49BB6913430B60A6
:102B00001FE000BF00003210000031100000221052
:102B100000002110000012100000111000100240EF
:102B20000000014000080140000C0140001001407D
:102B3000000401400B4B1A68BB69DB430949134091
:102B40000B607B6A01337B623B681A687B6A22FAFE
:102B500003F3002B7FF496AE00BF00BF2C37BD46B9
:102B600080BC70470004014080B485B000AF78603D
:102B70000B467B807B689A687B881340002B02D0D1
:102B80000123FB7301E00023FB73FB7B1846143722
:102B9000BD4680BC704780B483B000AF78600B4600
:102BA0007B8013467B707B78002B03D07A887B6810
:102BB0001A6103E07B881A047B681A6100BF0C3736
:102BC000BD4680BC704780B485B000AF78600B46CE
:102BD0007B807B68DB68FB607A88FB6813401A04A3
:102BE000FB68D9437B880B401A437B681A6100BF9E
:102BF0001437BD4680BC704780B586B000AF7860A2
:102C00007B68002B01D1012372E27B681B6803F013
:102C10000103002B00F08780924B5B6803F00C03EC
:102C2000042B0CD08F4B5B6803F00C03082B12D1E4
:102C30008C4B5B6803F48033B3F5803F0BD1894B39
:102C40001B6803F40033002B6CD07B685B68002B9F
:102C500068D101234CE27B685B68B3F5803F06D105
:102C6000804B1B687F4A43F4803313602EE07B68FF
:102C70005B68002B0CD17B4B1B687A4A23F48033B2
:102C80001360784B1B68774A23F4802313601DE0A0
:102C90007B685B68B3F5A02F0CD1724B1B68714A3F
:102CA00043F4802313606F4B1B686E4A43F48033F8
:102CB00013600BE06B4B1B686A4A23F4803313608C
:102CC000684B1B68674A23F4802313607B685B684A
:102CD000002B13D0FFF7B4FC386108E0FFF7B0FC1D
:102CE00002463B69D31A642B01D9032300E25D4BF2
:102CF0001B6803F40033002BF0D014E0FFF7A0FCB6
:102D0000386108E0FFF79CFC02463B69D31A642B4C
:102D100001D90323ECE1534B1B6803F40033002B70
:102D2000F0D100E000BF7B681B6803F00203002BBA
:102D300063D04C4B5B6803F00C03002B0BD0494B6A
:102D40005B6803F00C03082B1CD1464B5B6803F453
:102D50008033002B16D1434B1B6803F00203002B7A
:102D600005D07B681B69012B01D00123C0E13D4BDD
:102D70001B6823F0F8027B685B69DB003949134369
:102D80000B603AE07B681B69002B20D0364B012298
:102D90001A60FFF755FC386108E0FFF751FC024666
:102DA0003B69D31A022B01D90323A1E12D4B1B68E8
:102DB00003F00203002BF0D02A4B1B6823F0F8022B
:102DC0007B685B69DB00274913430B6015E0264BEA
:102DD00000221A60FFF734FC386108E0FFF730FC8E
:102DE00002463B69D31A022B01D9032380E11D4B14
:102DF0001B6803F00203002BF0D17B681B6803F013
:102E00000803002B3AD07B689B69002B19D0174B25
:102E100001221A60FFF714FC386108E0FFF710FC8C
:102E200002463B69D31A022B01D9032360E10D4B03
:102E30005B6A03F00203002BF0D0012000F09CFA43
:102E40001CE00A4B00221A60FFF7FAFB38610FE022
:102E5000FFF7F6FB02463B69D31A022B08D903237E
:102E600046E100BF0010024000004242800442429E
:102E7000924B5B6A03F00203002BE9D17B681B686D
:102E800003F00403002B00F0A6800023FB758B4B9E
:102E9000DB6903F08053002B0DD1884BDB69874A37
:102EA00043F08053D361854BDB6903F08053BB60F3
:102EB000BB680123FB75824B1B6803F48073002BF6
:102EC00018D17F4B1B687E4A43F480731360FFF771
:102ED000B7FB386108E0FFF7B3FB02463B69D31A42
:102EE000642B01D9032303E1754B1B6803F4807342
:102EF000002BF0D07B68DB68012B06D16F4B1B6A7F
:102F00006E4A43F0010313622DE07B68DB68002BFF
:102F10000CD16A4B1B6A694A23F001031362674BA9
:102F20001B6A664A23F0040313621CE07B68DB68BB
:102F3000052B0CD1614B1B6A604A43F004031362FA
:102F40005E4B1B6A5D4A43F0010313620BE05B4B6F
:102F50001B6A5A4A23F001031362584B1B6A574AF3
:102F600023F0040313627B68DB68002B15D0FFF7A6
:102F700067FB38610AE0FFF763FB02463B69D31A3F
:102F800041F28832934201D90323B1E04B4B1B6AD3
:102F900003F00203002BEED014E0FFF751FB386181
:102FA0000AE0FFF74DFB02463B69D31A41F2883233
:102FB000934201D903239BE0404B1B6A03F00203B9
:102FC000002BEED1FB7D012B05D13C4BDB693B4A4D
:102FD00023F08053D3617B68DB69002B00F087808E
:102FE000364B5B6803F00C03082B61D07B68DB6910
:102FF000022B46D1334B00221A60FFF721FB3861C8
:1030000008E0FFF71DFB02463B69D31A022B01D9EA
:1030100003236DE0294B1B6803F00073002BF0D1F4
:103020007B681B6AB3F5803F08D1244B5B6823F4AF
:1030300000327B689B68214913434B601F4B5B68E0
:1030400023F474127B68196A7B685B6A0B431B4923
:1030500013434B601B4B01221A60FFF7F1FA3861F2
:1030600008E0FFF7EDFA02463B69D31A022B01D9BB
:1030700003233DE0114B1B6803F00073002BF0D0DD
:1030800035E0104B00221A60FFF7DAFA386108E0E9
:10309000FFF7D6FA02463B69D31A022B01D9032364
:1030A00026E0064B1B6803F00073002BF0D11EE0F6
:1030B0007B68DB69012B07D1012319E00010024076
:1030C00000700040600042420B4B5B68FB60FB6895
:1030D00003F480327B681B6A9A4206D1FB6803F4D2
:1030E00070127B685B6A9A4201D0012300E00023E2
:1030F00018461837BD4680BD0010024080B584B028
:1031000000AF786039607B68002B01D10123D0E0EB
:103110006A4B1B6803F007033A689A4210D9674B61
:103120001B6823F0070265493B6813430B60634B40
:103130001B6803F007033A689A4201D00123B8E004
:103140007B681B6803F00203002B20D07B681B68A0
:1031500003F00403002B05D0594B5B68584A43F435
:10316000E06353607B681B6803F00803002B05D005
:10317000534B5B68524A43F460535360504B5B6857
:1031800023F0F0027B689B684D4913434B607B68DA
:103190001B6803F00103002B40D07B685B68012BA8
:1031A00007D1474B1B6803F40033002B15D10123D3
:1031B0007FE07B685B68022B07D1414B1B6803F003
:1031C0000073002B09D1012373E03D4B1B6803F012
:1031D0000203002B01D101236BE0394B5B6823F024
:1031E00003027B685B68364913434B60FFF728FA9C
:1031F000F8600AE0FFF724FA0246FB68D31A41F2AE
:103200008832934201D9032353E02D4B5B6803F0CE
:103210000C027B685B689B009A42EBD1274B1B68D2
:1032200003F007033A689A4210D2244B1B6823F03C
:10323000070222493B6813430B60204B1B6803F0D5
:1032400007033A689A4201D0012332E07B681B6889
:1032500003F00403002B08D0194B5B6823F4E062F1
:103260007B68DB68164913434B607B681B6803F07F
:103270000803002B09D0124B5B6823F460527B6873
:103280001B69DB000E4913434B6000F021F8024636
:103290000B4B5B681B0903F00F030A49CB5C22FA56
:1032A00003F3094A1360094B1B681846FFF786F9B8
:1032B000002318461037BD4680BD00BF00200240E5
:1032C00000100240D83C0008640000206800002084
:1032D00080B487B000AF0023FB600023BB600023F5
:1032E0007B6100237B6000233B611E4B5B68FB60BE
:1032F000FB6803F00C03042B02D0082B03D027E05B
:10330000194B3B6127E0FB689B0C03F00F03174A46
:10331000D35C7B60FB6803F48033002B10D0114B2F
:103320005B685B0C03F00103114AD35CBB607B68F4
:103330000D4A03FB02F2BB68B2FBF3F37B6104E0CE
:103340007B680C4A02FB03F37B617B693B6102E013
:10335000054B3B6100BF3B6918461C37BD4680BC2E
:10336000704700BF0010024000127A00E83C0008DD
:10337000F83C000800093D0080B485B000AF7860DB
:103380000A4B1B680A4AA2FB03235B0A7A6802FB0A
:1033900003F3FB6000BFFB685A1EFA60002BF9D1F3
:1033A00000BF00BF1437BD4680BC704764000020DA
:1033B000D34D621080B582B000AF78607B68002B7F
:1033C00001D1012341E07B6893F83D30DBB2002B53
:1033D00006D17B68002283F83C207868FFF752F81A
:1033E0007B68022283F83D207B681A687B6804337F
:1033F0001946104600F056FA7B68012283F84620F1
:103400007B68012283F83E207B68012283F83F20FD
:103410007B68012283F840207B68012283F84120E9
:103420007B68012283F842207B68012283F84320D5
:103430007B68012283F844207B68012283F84520C1
:103440007B68012283F83D20002318460837BD46DB
:1034500080BD000080B485B000AF78607B6893F8D1
:103460003D30DBB2012B01D0012335E07B68022225
:1034700083F83D207B681B68DA687B681B6842F034
:103480000102DA607B681B68164A934209D07B68A8
:103490001B68B3F1804F04D07B681B68124A9342CB
:1034A00011D17B681B689B6803F00703FB60FB6816
:1034B000062B10D07B681B681A687B681B6842F07B
:1034C00001021A6007E07B681B681A687B681B684A
:1034D00042F001021A60002318461437BD4680BC32
:1034E000704700BF002C01400004004080B584B04C
:1034F00000AF78607B681B68DB68FB607B681B68DB
:103500001B69BB60BB6803F00203002B20D0FB6883
:1035100003F00203002B1BD07B681B686FF00202D4
:103520001A617B6801221A777B681B689B6903F02C
:103530000303002B03D0786800F098F905E0786861
:1035400000F08BF9786800F09AF97B6800221A770E
:10355000BB6803F00403002B20D0FB6803F00403D6
:10356000002B1BD07B681B686FF004021A617B681C
:1035700002221A777B681B689B6903F44073002B57
:1035800003D0786800F072F905E0786800F065F91A
:10359000786800F074F97B6800221A77BB6803F042
:1035A0000803002B20D0FB6803F00803002B1BD07E
:1035B0007B681B686FF008021A617B6804221A7727
:1035C0007B681B68DB6903F00303002B03D078687A
:1035D00000F04CF905E0786800F03FF9786800F0F9
:1035E0004EF97B6800221A77BB6803F01003002BAA
:1035F00020D0FB6803F01003002B1BD07B681B68F6
:103600006FF010021A617B6808221A777B681B68CA
:10361000DB6903F44073002B03D0786800F026F9CF
:1036200005E0786800F019F9786800F028F97B68FF
:1036300000221A77BB6803F00103002B0CD0FB6853
:1036400003F00103002B07D07B681B686FF00102B9
:103650001A617868FEF7B8FDBB6803F08003002BA1
:103660000CD0FB6803F08003002B07D07B681B683D
:103670006FF080021A61786800F06FFABB6803F09F
:103680004003002B0CD0FB6803F04003002B07D055
:103690007B681B686FF040021A61786800F0F8F8E8
:1036A000BB6803F02003002B0CD0FB6803F0200361
:1036B000002B07D07B681B686FF020021A617868C6
:1036C00000F042FA00BF1037BD4680BD80B584B01F
:1036D00000AF786039600023FB737B6893F83C305F
:1036E000012B01D10223B4E07B68012283F83C2046
:1036F0007B68022283F83D207B681B689B68BB6067
:10370000BB6823F07703BB60BB6823F47F43BB60D7
:103710007B681B68BA689A603B681B68B3F5005FFA
:103720003ED0B3F5005F00F28780B3F5805F00F014
:103730008680B3F5805F7FD8702B1AD0702B7BD832
:10374000602B50D0602B77D8502B3CD0502B73D8A7
:10375000402B58D0402B6FD8302B64D0302B6BD8F7
:10376000202B60D0202B67D8002B5CD0102B5AD098
:1037700062E07B6818683B6899683B685A683B68F8
:10378000DB6800F06AF97B681B689B68BB60BB68FC
:1037900043F07703BB607B681B68BA689A604FE0B0
:1037A0007B6818683B6899683B685A683B68DB68C7
:1037B00000F053F97B681B689A687B681B6842F4C9
:1037C00080429A603CE07B6818683B6859683B68B7
:1037D000DB681A4600F0CAF87B681B68502118465F
:1037E00000F021F92CE07B6818683B6859683B6859
:1037F000DB681A4600F0E8F87B681B686021184611
:1038000000F011F91CE07B6818683B6859683B6858
:10381000DB681A4600F0AAF87B681B68402118464E
:1038200000F001F90CE07B681A683B681B681946D8
:10383000104600F0F8F803E00123FB7300E000BF3E
:103840007B68012283F83D207B68002283F83C20BE
:10385000FB7B18461037BD4680BD80B483B000AFF7
:10386000786000BF0C37BD4680BC704780B483B021
:1038700000AF786000BF0C37BD4680BC704780B495
:1038800083B000AF786000BF0C37BD4680BC704786
:1038900080B483B000AF786000BF0C37BD4680BCF9
:1038A0007047000080B485B000AF786039607B68F5
:1038B0001B68FB607B682B4A934207D07B68B3F19F
:1038C000804F03D07B68284A934208D1FB6823F0DD
:1038D0007003FB603B685B68FA681343FB607B68BE
:1038E000204A934207D07B68B3F1804F03D07B68B6
:1038F0001D4A934208D1FB6823F44073FB603B6888
:10390000DB68FA681343FB60FB6823F080023B68C6
:103910005B691343FB607B68FA681A603B689A68CE
:103920007B68DA623B681A687B689A627B680D4A3A
:10393000934203D13B681A697B681A637B68012252
:103940005A617B681B6903F00103002B05D07B687B
:103950001B6923F001027B681A6100BF1437BD4662
:1039600080BC7047002C01400004004080B487B048
:1039700000AFF860B9607A60FB681B6A7B61FB6826
:103980001B6A23F00102FB681A62FB689B693B61BA
:103990003B6923F0F0033B617B681B013A691343E9
:1039A0003B617B6923F00A037B617A69BB6813433F
:1039B0007B61FB683A699A61FB687A691A6200BFA9
:1039C0001C37BD4680BC704780B487B000AFF8603C
:1039D000B9607A60FB681B6A7B61FB681B6A23F035
:1039E0001002FB681A62FB689B693B613B6923F428
:1039F00070433B617B681B033A6913433B617B69FE
:103A000023F0A0037B61BB681B017A6913437B61D0
:103A1000FB683A699A61FB687A691A6200BF1C37D1
:103A2000BD4680BC704780B485B000AF7860396017
:103A30007B689B68FB60FB6823F07003FB603A685F
:103A4000FB68134343F00703FB607B68FA689A60E6
:103A500000BF1437BD4680BC704780B487B000AF4C
:103A6000F860B9607A603B60FB689B687B617B694A
:103A700023F47F437B613B681A027B681A43BB686F
:103A800013437A6913437B61FB687A699A6000BFCC
:103A90001C37BD4680BC704780B485B000AF7860ED
:103AA00039607B6893F83C30012B01D1022341E05F
:103AB0007B68012283F83C207B68022283F83D204A
:103AC0007B681B685B68FB607B681B689B68BB60EE
:103AD000FB6823F07003FB603B681B68FA681343C4
:103AE000FB607B681B68FA685A607B681B68144A35
:103AF000934209D07B681B68B3F1804F04D07B6888
:103B00001B68104A93420CD1BB6823F08003BB6052
:103B10003B685B68BA681343BB607B681B68BA6824
:103B20009A607B68012283F83D207B68002283F83D
:103B30003C20002318461437BD4680BC704700BFA8
:103B4000002C01400004004080B483B000AF7860D6
:103B500000BF0C37BD4680BC704780B483B000AF57
:103B6000786000BF0C37BD4680BC704703460244F6
:103B7000934200D1704703F8011BF9E770B50026A6
:103B80000C4D0D4C641BA410A64209D100F098F80E
:103B900000260A4D0A4C641BA410A64205D170BD34
:103BA00055F8043B98470136EEE755F8043B984733
:103BB0000136F2E7FC3C0008FC3C0008FC3C000835
:103BC000003D0008000000002DE9F041C1F30A5754
:103BD000A7F2FF36132E02460B460C4605468046DA
:103BE0002FDC002E11DA32A3D3E90023FCF7B6FA5A
:103BF00000220023FCF7F8FE20B1002C51DB254306
:103C000053D12C4623462A4624E02B4F374101EA64
:103C1000070C5CEA000C1DD025A3D3E90023FCF7B8
:103C20009DFA00220023FCF7DFFE0028EAD0002CDA
:103C3000C2BF4FF480133341E418002524EA07047F
:103C4000E0E7332E0ADDB6F5806F03D1FCF786FA84
:103C500002460B4610461946BDE8F0814FF0FF3C86
:103C6000A7F213472CFA07F73842F3D010A3D3E991
:103C70000023FCF773FA00220023FCF7B5FE0028AE
:103C8000C0D0002C0ADD142E01D1013406E001233E
:103C9000C6F13406B3401D44A845F6D825EA070509
:103CA000B0E700254FF00044ACE70025034CA9E73E
:103CB0009C7500883CE4377EFFFF0F000000F03F5A
:103CC000F8B500BFF8BC08BC9E467047F8B500BF09
:083CD000F8BC08BC9E467047D9
:103CD80000000000000000000102030406070809B4
:103CE80002030405060708090A0B0C0D0E0F101035
:043CF80001020000C5
:043CFC003501000886
:043D000011010008A5
:103D040001000000010000000100000001000000AB
:103D14000100000001000000F401000001000000A7
:103D2400010000000100000001000000F401000097
:103D3400010000000100000001000000010000007B
:103D4400F401000001000000010000000100000077
:103D54000400000005000000030000000200000051
:103D64000A00000000127A001000000001000000A8
:040000050800254585
:00000001FF
