:020000040800F2
:1000000000280020E91D0008711D0008791D000866
:10001000811D0008891D0008911D000800000000D6
:10002000000000000000000000000000991D000812
:10003000A51D000800000000B11D0008BD1D00083E
:10004000311E0008311E0008311E0008311E000854
:10005000311E0008311E0008311E0008311E000844
:10006000311E0008311E0008311E0008311E000834
:10007000311E0008311E0008311E0008311E000824
:10008000311E0008311E0008311E0008311E000814
:10009000311E0008311E0008311E0008311E000804
:1000A000311E0008311E0008311E0008311E0008F4
:1000B000C91D0008311E000800000000311E0008A4
:1000C000311E00080000000000000000311E000882
:1000D00000000000311E0008311E00080000000072
:1000E000311E0008311E0008311E0008000000000B
:1000F0000000000000000000000000000000000000
:0C01000000000000000000005FF808F1A3
:10010C0010B5054C237833B9044B13B10448AFF345
:10011C0000800123237010BD680000200000000047
:10012C006834000808B5034B1BB103490348AFF30F
:10013C00008008BD000000006C000020683400083E
:10014C0080B582B000AF78607B68002BC0F29C81D8
:10015C007B68092B00F398817B68092B00F2968150
:10016C0001A252F823F000BF9D010008E90100082C
:10017C003502000881020008CD02000819030008AE
:10018C0065030008B1030008FD03000849040008DA
:10019C0000220121BF4802F04AF900220221BD4889
:1001AC0002F045F900220421BA4802F040F900227D
:1001BC000821B84802F03BF900221021B54802F0A2
:1001CC0036F900224FF48071B24802F030F9012266
:1001DC004FF40071AF4802F02AF958E101220121D5
:1001EC00AC4802F024F900220221AA4802F01FF9BF
:1001FC0000220421A74802F01AF901220821A5487F
:10020C0002F015F901221021A24802F010F9012286
:10021C004FF480719F4802F00AF901224FF40071EB
:10022C009C4802F004F932E100220121994802F0C5
:10023C00FEF800220221974802F0F9F8012204216D
:10024C00944802F0F4F800220821924802F0EFF8EA
:10025C00002210218F4802F0EAF801224FF480713D
:10026C008C4802F0E4F800224FF40071894802F047
:10027C00DEF80CE100220121864802F0D8F80022B9
:10028C000221844802F0D3F800220421814802F0B4
:10029C00CEF8002208217F4802F0C9F80122102173
:1002AC007C4802F0C4F801224FF48071794802F0C6
:1002BC00BEF800224FF40071764802F0B8F8E6E080
:1002CC0001220121734802F0B2F800220221714888
:1002DC0002F0ADF8002204216E4802F0A8F80122C9
:1002EC0008216C4802F0A3F801221021694802F0A1
:1002FC009EF800224FF48071664802F098F80022B4
:10030C004FF40071634802F092F8C0E00022012122
:10031C00604802F08CF8012202215E4802F087F856
:10032C00002204215B4802F082F80022082159487F
:10033C0002F07DF801221021564802F078F80022D4
:10034C004FF48071534802F072F800224FF40071A0
:10035C00504802F06CF89AE0002201214D4802F05E
:10036C0066F8012202214B4802F061F800220421B8
:10037C00484802F05CF800220821464802F057F881
:10038C0000221021434802F052F800224FF48071F1
:10039C00404802F04CF800224FF400713D4802F046
:1003AC0046F874E0002201213A4802F040F800229D
:1003BC000221384802F03BF800220421354802F0B3
:1003CC0036F801220821334802F031F801221021BD
:1003DC00304802F02CF801224FF480712D4802F0C5
:1003EC0026F801224FF400712A4802F020F84EE062
:1003FC0000220121274802F01AF800220221254888
:10040C0002F015F800220421224802F010F8002214
:10041C000821204802F00BF8002210211D4802F0A0
:10042C0006F800224FF480711A4802F000F80022FE
:10043C004FF40071174801F0FAFF28E00022012167
:10044C00144801F0F4FF00220221124801F0EFFFE2
:10045C00002204210F4801F0EAFF002208210D4878
:10046C0001F0E5FF012210210A4801F0E0FF002213
:10047C004FF48071074801F0DAFF00224FF400714D
:10048C00044801F0D4FF02E000BF00E000BF0837D1
:10049C00BD4680BD0008014080B582B000AF7860D9
:1004AC007B68002BC0F2B0817B68092B00F3AC8118
:1004BC007B68092B00F2AA8101A252F823F000BF3D
:1004CC00F50400084505000895050008E505000839
:1004DC003506000885060008D50600082507000823
:1004EC0075070008C507000800222021C94801F043
:1004FC009EFF00224021C74801F099FF0022802175
:10050C00C44801F094FF00224FF48071C14801F0FF
:10051C008EFF00224FF40071BE4801F088FF0022CC
:10052C004FF40051BB4801F082FF01224FF480418F
:10053C00B84801F07CFF6AE101222021B54801F0A6
:10054C0076FF00224021B34801F071FF0022802188
:10055C00B04801F06CFF01224FF48071AD4801F0FE
:10056C0066FF01224FF40071AA4801F060FF0122DE
:10057C004FF40051A74801F05AFF01224FF480417B
:10058C00A44801F054FF42E100222021A14801F0CF
:10059C004EFF002240219F4801F049FF012280219B
:1005AC009C4801F044FF00224FF48071994801F0FF
:1005BC003EFF00224FF40071964801F038FF0122F3
:1005CC004FF40051934801F032FF00224FF4804168
:1005DC00904801F02CFF1AE1002220218D4801F0F7
:1005EC0026FF002240218B4801F021FF00228021B0
:1005FC00884801F01CFF00224FF48071854801F0FF
:10060C0016FF01224FF40071824801F010FF012205
:10061C004FF400517F4801F00AFF00224FF4804153
:10062C007C4801F004FFF2E001222021794801F01E
:10063C00FEFE00224021774801F0F9FE00228021C5
:10064C00744801F0F4FE01224FF48071714801F0FE
:10065C00EEFE01224FF400716E4801F0E8FE00221C
:10066C004FF400516B4801F0E2FE00224FF4804140
:10067C00684801F0DCFECAE000222021654801F048
:10068C00D6FE01224021634801F0D1FE00228021D8
:10069C00604801F0CCFE00224FF480715D4801F0FF
:1006AC00C6FE01224FF400715A4801F0C0FE002230
:1006BC004FF40051574801F0BAFE00224FF480412C
:1006CC00544801F0B4FEA2E000222021514801F070
:1006DC00AEFE012240214F4801F0A9FE00228021EC
:1006EC004C4801F0A4FE00224FF48071494801F0FF
:1006FC009EFE00224FF40071464801F098FE002245
:10070C004FF40051434801F092FE00224FF4804117
:10071C00404801F08CFE7AE0002220213D4801F097
:10072C0086FE002240213B4801F081FE0022802100
:10073C00384801F07CFE01224FF48071354801F0FD
:10074C0076FE01224FF40071324801F070FE012256
:10075C004FF400512F4801F06AFE01224FF4804102
:10076C002C4801F064FE52E000222021294801F0BF
:10077C005EFE00224021274801F059FE0022802114
:10078C00244801F054FE00224FF48071214801F0FE
:10079C004EFE00224FF400711E4801F048FE00226C
:1007AC004FF400511B4801F042FE00224FF48041EF
:1007BC00184801F03CFE2AE000222021154801F0E7
:1007CC0036FE00224021134801F031FE0022802128
:1007DC00104801F02CFE00224FF480710D4801F0FE
:1007EC0026FE01224FF400710A4801F020FE00227F
:1007FC004FF40051074801F01AFE00224FF48041DB
:10080C00044801F014FE02E000BF00E000BF08370E
:10081C00BD4680BD000C014080B584B000AF78604F
:10082C007B68002B5BDB7B68632B58DC2E4B1B68D7
:10083C00012B55D1642001F0A7F97B68092B0FDC43
:10084C0000224FF48061294801F0F1FD00224FF4A1
:10085C000061264801F0EBFD7868FFF771FC3FE082
:10086C00234B1B68002B1AD17B68224A82FB031294
:10087C009210DB17D31ABB6000224FF480611B4827
:10088C0001F0D5FD01224FF40061184801F0CFFDB5
:10089C00B868FFF755FC164B01221A6020E07A6805
:1008AC00144B83FB02139910D317C91A0B469B00E8
:1008BC000B445B00D31AFB6000224FF400610B4821
:1008CC0001F0B5FD01224FF48061084801F0AFFD45
:1008DC00F868FFF735FC064B00221A6000E000BFF9
:1008EC001037BD4680BD00BF240100200008014028
:1008FC00840000206766666680B584B000AF7860BF
:10090C007B68002B5BDB7B68632B58DC2E4B1B68F6
:10091C00012B55D1642001F01DF97B68092B0FDCEC
:10092C0000224FF48051294801F081FD00224FF440
:10093C000041264801F07BFD7868FFF7ADFD3FE0F4
:10094C00234B1B68002B1AD17B68224A82FB0312B3
:10095C009210DB17D31ABB6000224FF480511B4856
:10096C0001F065FD01224FF40041184801F05FFDD4
:10097C00B868FFF791FD164B01221A6020E07A68E7
:10098C00144B83FB02139910D317C91A0B469B0007
:10099C000B445B00D31AFB6000224FF400410B4860
:1009AC0001F045FD01224FF48051084801F03FFD54
:1009BC00F868FFF771FD064B00221A6000E000BFDB
:1009CC001037BD4680BD00BF20010020000801404B
:1009DC00880000206766666680B400AF064B1B6813
:1009EC00012B04D1044B00221A60012300E00023E8
:1009FC001846BD4680BC70479000002080B400AF04
:100A0C00064B1B68012B04D1044B00221A600123F6
:100A1C0000E000231846BD4680BC704798000020BB
:100A2C0080B400AF064B1B68012B04D1044B002291
:100A3C001A60012300E000231846BD4680BC7047B5
:100A4C00A000002080B500AF694B1B68694A136099
:100A5C00694B1B68664A13602021684801F0D0FC82
:100A6C0003461A46644B1A60614B1A68614B1B684B
:100A7C009A422FD15E4B1A685F4B1B689A4229D160
:100A8C005D4B1A685E4B1B689A420FD05A4B1B6821
:100A9C005B4A13605A4B1B68002B1BD1594B4FF40C
:100AAC00FA721A60584B01221A6013E0554B1B68FE
:100ABC00013B544A1360534B1B68002B0AD1514B1A
:100ACC004FF4FA721A604E4B1B68002B02D14F4B3D
:100ADC0001221A604E4B1B684E4A13604E4B1B682A
:100AEC004B4A13604021454801F08AFC03461A46E4
:100AFC00494B1A60464B1A68464B1B689A422FD1D9
:100B0C00434B1A68444B1B689A4229D1424B1A68D2
:100B1C00424B1B689A420FD03F4B1B683F4A1360F5
:100B2C003E4B1B68002B1BD13D4B4FF4FA721A60E5
:100B3C003C4B01221A6013E0394B1B68013B384ACD
:100B4C001360374B1B68002B0AD1354B4FF4FA72EC
:100B5C001A60324B1B68002B02D1334B01221A60F6
:100B6C00324B1B68324A1360324B1B682F4A13609E
:100B7C008021224801F044FC03461A462D4B1A6092
:100B8C002A4B1A682A4B1B689A422FD1274B1A689A
:100B9C00284B1B689A4229D1264B1A68264B1B6896
:100BAC009A420FD0234B1B68234A1360224B1B68BD
:100BBC00002B1BD1214B4FF4FA721A60204B0122EF
:100BCC001A6013E01D4B1B68013B1C4A13601B4B46
:100BDC001B68002B0AD1194B4FF4FA721A60164B92
:100BEC001B68002B02D1174B01221A6000BF80BD7D
:100BFC000400002000000020080000200008014034
:100C0C000C00002010000020900000208C00002020
:100C1C0018000020140000201C00002020000020E0
:100C2C002400002098000020940000202C000020BC
:100C3C002800002030000020340000203800002064
:100C4C00A00000209C00002080B500AFAC4B1B68BE
:100C5C00032B00F24B8101A252F823F0790C00080F
:100C6C00050D0008AD0D0008530E000800220121EF
:100C7C00A44801F0DCFB00224FF40061A14801F014
:100C8C00D6FB00224FF480519E4801F0D0FB00228D
:100C9C004FF480619C4801F0CAFB00224FF40061C4
:100CAC00994801F0C4FB00224FF48051964801F0A2
:100CBC00BEFB00224FF40041934801F0B8FB904B6F
:100CCC0001221A60914B1B68914A1360904B1B6870
:100CDC001846FFF7A1FD8D4B1B684FF47A7202FB8F
:100CEC0003F3184600F0CEFE4FF47A7000F0E4FEE9
:100CFC000A2000F049FF00E101220121814801F0A6
:100D0C0096FB00224FF400617E4801F090FB00221C
:100D1C004FF480517B4801F08AFB7E4B1B68012B02
:100D2C0008D14FF47A7000F0C7FE794B1B68013B79
:100D3C00774A1360764B1B681846FFF76DFDFFF77B
:100D4C004BFE0346012B09D16D4B0A221A60724BE4
:100D5C000A221A6042F2107000F094FE6F4B1B686E
:100D6C00012B40F0C580664B02221A606C4B1B684D
:100D7C004FF47A7202FB03F3184600F083FE684BC3
:100D8C001B68634A1360624B1B681846FFF744FDEF
:100D9C004FF47A7000F090FE0A2000F0F5FEA7E008
:100DAC0000220121574801F042FB01224FF400615F
:100DBC00544801F03CFB00224FF48051514801F0A3
:100DCC0036FB544B1B68012B08D14FF47A7000F0A2
:100DDC0073FE4F4B1B68013B4D4A13604C4B1B6819
:100DEC001846FFF719FDFFF7F7FD0346012B09D154
:100DFC00434B0A221A60484B0A221A6042F21070C6
:100E0C0000F040FE454B1B68012B73D13C4B032279
:100E1C001A60444B1B684FF47A7202FB03F31846BA
:100E2C0000F030FE3F4B1B68394A1360384B1B688F
:100E3C001846FFF7F1FC4FF47A7000F03DFE0A20E3
:100E4C0000F0A2FE56E0002201212E4801F0EFFA3C
:100E5C0000224FF400612B4801F0E9FA01224FF413
:100E6C008051284801F0E3FA2A4B1B68012B08D16A
:100E7C004FF47A7000F020FE254B1B68013B244A8E
:100E8C001360234B1B681846FFF7C6FCFFF7A4FD45
:100E9C000346012B09D11A4B0A221A601E4B0A2257
:100EAC001A6042F2107000F0EDFD1C4B1B68012B18
:100EBC0022D1134B01221A60144B1B684FF47A7227
:100ECC0002FB03F3184600F0DDFD104B1B68104AC3
:100EDC0013600F4B1B681846FFF79EFC4FF47A709B
:100EEC0000F0EAFD0A2000F04FFE05E000BF04E030
:100EFC0000BF02E000BF00E000BF00BF80BD00BF2C
:100F0C00AC000020000C0140000801404C00002007
:100F1C00A400002014010020480000201001002033
:100F2C00500000205400002080B500AF864B1B6899
:100F3C00043B032B00F2FF8001A252F823F000BF08
:100F4C005D0F0008BF100008B50F00083B1000082B
:100F5C00002202217D4801F06AFA002208217B4818
:100F6C0001F065FA00221021784801F060FA764B06
:100F7C0006221A60764B1B68764A1360754B1B6809
:100F8C001846FFF7B9FC724B1B684FF47A7202FBE0
:100F9C0003F3184600F0AAFD4FF47A7000F0C0FD80
:100FAC000A2000F0D7FDCDE001220221674801F0B4
:100FBC003EFA00220821654801F039FA002210217E
:100FCC00624801F034FA644B1B68012B08D14FF4D2
:100FDC007A7000F0A5FD5F4B1B68013B5D4A136006
:100FEC005C4B1B681846FFF787FC5C4B1B68012B9E
:100FFC0040F0A380544B07221A60594B1B684FF4E6
:10100C007A7202FB03F3184600F070FD544B1B6818
:10101C00504A13604F4B1B681846FFF76DFC4FF49A
:10102C007A7000F07DFD0A2000F094FD85E000222E
:10103C000221464801F0FBF901220821434801F046
:10104C00F6F900221021414801F0F1F9424B1B68DE
:10105C00012B08D14FF47A7000F062FD3D4B1B68F8
:10106C00013B3C4A13603B4B1B681846FFF744FCA2
:10107C003A4B1B68012B62D1334B05221A60394B5A
:10108C001B684FF47A7202FB03F3184600F02EFD36
:10109C00344B1B682F4A13602E4B1B681846FFF706
:1010AC002BFC4FF47A7000F03BFD0A2000F052FD4F
:1010BC0045E000220221254801F0B9F9002208215F
:1010CC00224801F0B4F901221021204801F0AFF9B7
:1010DC00214B1B68012B08D14FF47A7000F020FDD6
:1010EC001C4B1B68013B1B4A13601A4B1B681846B0
:1010FC00FFF702FC194B1B68012B22D1124B062265
:10110C001A60134B1B684FF47A7202FB03F31846F8
:10111C0000F0ECFC0E4B1B680E4A13600D4B1B6869
:10112C001846FFF7E9FB4FF47A7000F0F9FC0A203F
:10113C0000F010FD05E000BF04E000BF02E000BFBE
:10114C0000E000BF00BF80BD48000020000C014043
:10115C0050000020A80000201C01002018010020D5
:10116C00540000204C00002080B483B000AF7860A5
:10117C00384B1A68384B1B6813447A689A4203D16F
:10118C00364A7B68136060E07B68012B5CD0314B86
:10119C001A68314B1B6813447A689A4220DD13E0BD
:1011AC002C4B1A682C4B1B68134403F00103002BC7
:1011BC0005D1284B1B680133264A136004E0264BEB
:1011CC001B680133244A1360224B1A68224B1B689C
:1011DC0013447A689A42E3DC204A7B68136034E05B
:1011EC001C4B1A681C4B1B6813447A689A422CDA05
:1011FC001EE0184B1A68184B1B689A4205DB154BFE
:10120C001B68013B134A136004E0134B1B68013B42
:10121C00114A13600F4B1B68002B02DC0D4B012293
:10122C001A600D4B1B68002B02DC0B4B01221A6061
:10123C00084B1A68084B1B6813447A689A42D8DB2F
:10124C00064A7B68136000E000BF0C37BD4680BCCB
:10125C00704700BF50000020540000204C000020BC
:10126C0080B483B000AF7860394B1A68394B1B6877
:10127C00D31A7A689A4203D1374A7B68136062E0CA
:10128C00334B1A68334B1B68D31A7A689A4227DDA2
:10129C001AE07B685A002E4B1B689A4205DD2C4BDA
:1012AC001B6801332A4A13600EE02A4B1B68012B82
:1012BC0005DD284B1B68013B264A136004E0244BD8
:1012CC001B680133224A1360214B1A68214B1B689F
:1012DC00D31A7A689A42DCDC1F4A7B68136032E0CE
:1012EC001B4B1A681B4B1B68D31A7A689A422ADA72
:1012FC001EE07B685A00164B1B689A4209DA144BA5
:10130C001B68022B05DD124B1B68013B104A136056
:10131C000EE0104B1B68012B05DD0E4B1B68013BCF
:10132C000C4A136004E00A4B1B68013B084A13602B
:10133C00074B1A68074B1B68D31A7A689A42D8DB9A
:10134C00054A7B68136000BF0C37BD4680BC7047F4
:10135C004C000020540000205000002080B483B0CA
:10136C0000AF7860394B1A68394B1B68D31A7A680E
:10137C009A4203D1374A7B68136062E0334B1A6898
:10138C00334B1B68D31A7A689A4227DD1AE07B68C4
:10139C005A002E4B1B689A4205DD2C4B1B680133FF
:1013AC002A4A13600EE02A4B1B68012B05DD284BE3
:1013BC001B68013B264A136004E0244B1B68013375
:1013CC00224A1360214B1A68214B1B68D31A7A6886
:1013DC009A42DCDC1F4A7B68136032E01B4B1A68B4
:1013EC001B4B1B68D31A7A689A422ADA1EE07B6878
:1013FC005A00164B1B689A4209DA144B1B68022BD5
:10140C0005DD124B1B68013B104A13600EE0104BBC
:10141C001B68012B05DD0E4B1B68013B0C4A13604E
:10142C0004E00A4B1B68013B084A1360074B1A681F
:10143C00074B1B68D31A7A689A42D8DB054A7B683B
:10144C00136000BF0C37BD4680BC70474C000020B9
:10145C00500000205400002080B500AFB14B1B6839
:10146C000A3B042B00F2D78101A252F823F000BFF3
:10147C009114000817150008711500085116000882
:10148C005117000800220121A74800F0D0FF0022CC
:10149C004FF40061A44800F0CAFF00224FF48051C1
:1014AC00A14800F0C4FF002202219F4800F0BFFFBA
:1014BC00002208219C4800F0BAFF002210219A4813
:1014CC0000F0B5FF01224FF48051984800F0AFFFB7
:1014DC0001224FF40041954800F0A9FF00224FF47F
:1014EC008061924800F0A3FF00224FF400618F4806
:1014FC0000F09DFF8B4B0B221A6040F6B83000F0C9
:10150C00C1FAFA2000F0D8FA8EE10120FEF718FE9D
:10151C00FFF762FA0346012B0CD1824B0C221A60A6
:10152C0042F2107000F0AEFAFA2000F0C5FA0A2070
:10153C0000F010FB7E4B1B68012B40F06E81794B49
:10154C0000221A607B4B04221A6000224FF4805157
:10155C00764800F06CFF00224FF40041734800F015
:10156C0066FF5AE10220FEF7EBFD734B1B68012B63
:10157C0020D101216C4800F072FF10216A4800F064
:10158C006EFF00220221684800F051FF0022082162
:10159C00654800F04CFF00224FF40061624800F0F7
:1015AC0046FF00224FF480515F4800F040FFFA20C4
:1015BC0000F082FAFFF710FA0346012B0CD1594BBD
:1015CC000D221A6042F2107000F05CFAFA2000F062
:1015DC0073FA0A2000F0BEFAFFF710FA0346012B4B
:1015EC000FD1564B1B680133544A1360534B1B6885
:1015FC00632B02DD514B01221A6042F2107000F095
:10160C0041FA4E4B1B681846FFF776F9FFF708FABC
:10161C000346012B0AD1494B1B681846FFF7A4FD62
:10162C00404B00221A60434B04221A60404B1B684B
:10163C00012B40F0F4803B4B00221A603D4B0422FE
:10164C001A60ECE00320FEF77BFD3B4B1B68012B83
:10165C0020D10821344800F002FF4FF48051324869
:10166C0000F0FDFE002201212F4800F0E0FE0022D8
:10167C0002212D4800F0DBFE002210212A4800F048
:10168C00D6FE00224FF40061274800F0D0FEFA206D
:10169C0000F012FAFFF7A0F90346012B0CD1214BF5
:1016AC000E221A6042F2107000F0ECF9FA2000F0F1
:1016BC0003FA0A2000F04EFAFFF7A0F90346012BBB
:1016CC000FD11F4B1B6801331D4A13601C4B1B6849
:1016DC00632B02DD1A4B01221A6042F2107000F0EB
:1016EC00D1F9174B1B681846FFF706F9FFF798F965
:1016FC000346012B0AD1124B1B681846FFF72EFE2E
:10170C00084B00221A600B4B04221A60084B1B6812
:10171C00012B40F08680034B00221A60054B0422FB
:10172C001A607EE0AC000020000C01400008014073
:10173C001001002048000020140100203C00002073
:10174C00440000200420FEF7FBFC384B1B68012BE7
:10175C0020D14FF40061364800F081FE022134485C
:10176C0000F07DFE00220121314800F060FE0022D5
:10177C0008212F4800F05BFE002210212C4800F0BD
:10178C0056FE00224FF48051294800F050FEFA20FA
:10179C0000F092F9FFF720F90346012B06D1254BF7
:1017AC000A221A6040F6B83000F06CF9FFF726F9FF
:1017BC000346012B0FD1204B1B6801331E4A1360CB
:1017CC001D4B1B68632B02DD1B4B01221A6042F27E
:1017DC00107000F057F9184B1B681846FFF78CF87F
:1017EC00FFF71EF90346012B0AD1134B1B68184651
:1017FC00FFF736FD0F4B00221A60104B04221A60C3
:10180C000F4B1B68012B0ED10A4B00221A600B4B9D
:10181C0004221A6007E000BF06E000BF04E000BF2E
:10182C0002E000BF00E000BF00BF80BD140100203B
:10183C00000C0140AC0000204000002048000020BB
:10184C001001002080B500AF00F0EEFA00F012F8A5
:10185C0000F098F800F04AF8054801F047FAFFF755
:10186C00F3F9FFF761FBFFF7F7FD00BFF7E700BFE8
:10187C00B000002080B590B000AF07F1180328220B
:10188C000021184601F0BEFD3B1D00221A605A6073
:10189C009A60DA601A610223BB610123BB621023D8
:1018AC00FB6200237B6307F11803184600F0F0FD80
:1018BC000346002B01D000F0DFF80F237B600023E0
:1018CC00BB600023FB6000233B6100237B613B1D5D
:1018DC000021184601F05EF80346002B01D000F001
:1018EC00CBF800BF4037BD4680BD000080B586B048
:1018FC0000AF07F1080300221A605A609A60DA60A0
:10190C003B4600221A605A601D4B4FF080421A6011
:10191C001B4B41F63F725A60194B00229A60184BD0
:10192C000922DA60164B00221A61154B00229A61CB
:10193C00134801F08BF90346002B01D000F09CF802
:10194C004FF48053BB6007F1080319460C4801F0B3
:10195C0009FB0346002B01D000F08EF800233B60FE
:10196C0000237B603B461946054801F0E1FC034629
:10197C00002B01D000F080F800BF1837BD4680BDA9
:10198C00B000002080B588B000AF07F11003002232
:10199C001A605A609A60DA602E4B9B692D4A43F0AC
:1019AC00200393612B4B9B6903F02003FB60FB68C6
:1019BC00284B9B69274A43F004039361254B9B6991
:1019CC0003F00403BB60BB68224B9B69214A43F0C4
:1019DC00080393611F4B9B6903F008037B607B68D2
:1019EC00002249F61F711C4800F021FD002247F629
:1019FC00FB311A4800F01BFD49F61F733B610123B4
:101A0C007B610023BB610223FB6107F110031946C4
:101A1C00114800F079FBE0233B6100237B6101233B
:101A2C00BB6107F1100319460B4800F06DFB47F63C
:101A3C00FB333B6101237B610023BB610223FB6110
:101A4C0007F110031946054800F05EFB00BF203774
:101A5C00BD4680BD0010024000080140000C014052
:101A6C0080B582B000AF7860FEF7ECFF00F0A6F80E
:101A7C0000BF0837BD4680BD80B400AF72B600BF52
:101A8C0000BFFDE780B483B000AF7860074B1B68E4
:101A9C007A6892FBF3F3064A1360064B00221A6035
:101AAC0000BF0C37BD4680BC704700BF58000020FB
:101ABC00F80000201001002080B483B000AF7860E3
:101ACC00074B1B687A6892FBF3F3064A1360064BCC
:101ADC0000221A6000BF0C37BD4680BC704700BFA7
:101AEC0058000020FC0000201401002080B483B0BA
:101AFC0000AF7860074B1B687A6892FBF3F3064AD9
:101B0C001360064B00221A6000BF0C37BD4680BC28
:101B1C00704700BF58000020000100201801002071
:101B2C0080B483B000AF7860074B1B687A6892FB77
:101B3C00F3F3064A1360064B00221A6000BF0C3701
:101B4C00BD4680BC704700BF580000200401002037
:101B5C001C01002080B483B000AF7860074B1B6879
:101B6C007A6892FBF3F3064A1360064B00221A6064
:101B7C0000BF0C37BD4680BC704700BF580000202A
:101B8C00080100202001002080B483B000AF7860F1
:101B9C00074B1B687A6892FBF3F3064A1360064BFB
:101BAC0000221A6000BF0C37BD4680BC704700BFD6
:101BBC00580000200C0100202401002080B400AF4C
:101BCC00314B1B68002B0BDD2F4B1B68013B2E4A46
:101BDC0013602D4B1B68002B02D12C4B01221A6079
:101BEC002B4B1B68002B0BDD294B1B68013B284A38
:101BFC001360274B1B68002B02D1264B01221A6065
:101C0C00254B1B68002B0BDD234B1B68013B224A29
:101C1C001360214B1B68002B02D1204B01221A6050
:101C2C001F4B1B68002B0BDD1D4B1B68013B1C4A1B
:101C3C0013601B4B1B68002B02D11A4B01221A603C
:101C4C00194B1B68002B0BDD174B1B68013B164A0D
:101C5C001360154B1B68002B02D1144B01221A6028
:101C6C00134B1B68002B0BDD114B1B68013B104AFF
:101C7C0013600F4B1B68002B02D10E4B01221A6014
:101C8C0000BFBD4680BC7047F8000020100100204A
:101C9C00FC0000201401002000010020180100208D
:101CAC00040100201C01002008010020200100205C
:101CBC000C0100202401002080B485B000AF154B2E
:101CCC009B69144A43F001039361124B9B6903F027
:101CDC000103BB60BB680F4BDB690E4A43F08053BA
:101CEC00D3610C4BDB6903F080537B607B680A4B40
:101CFC005B68FB60FB6823F0E063FB60FB6843F010
:101D0C000073FB60044AFB68536000BF1437BD4688
:101D1C0080BC7047001002400000014080B584B0C8
:101D2C0000AF78607B681B68B3F1804F13D10C4B0C
:101D3C00DB690B4A43F00103D361094BDB6903F008
:101D4C000103FB60FB68002200211C2000F0A5F9B8
:101D5C001C2000F0BEF900BF1037BD4680BD00BF8F
:101D6C000010024080B400AF00BFFDE780B400AFAC
:101D7C0000BFFDE780B400AF00BFFDE780B400AF4B
:101D8C0000BFFDE780B400AF00BFFDE780B400AF3B
:101D9C0000BFBD4680BC704780B400AF00BFBD46DD
:101DAC0080BC704780B400AF00BFBD4680BC70479C
:101DBC0080B500AF00F07EF800BF80BD80B500AFED
:101DCC00024800F0DFFF00BF80BD00BFB000002064
:101DDC0080B400AF00BFBD4680BC7047FFF7F8FF72
:101DEC000B480C490C4A002302E0D458C45004336D
:101DFC00C4188C42F9D3094A094C002301E0136042
:101E0C000432A242FBD301F005FBFFF71BFD704728
:101E1C000000002068000020AC340008680000209E
:101E2C002C010020FEE7000080B500AF084B1B68BA
:101E3C00074A43F010031360032000F023F90F202E
:101E4C0000F008F8FFF738FF0023184680BD00BFEC
:101E5C000020024080B582B000AF7860124B1A6847
:101E6C00124B1B7819464FF47A73B3FBF1F3B2FBA8
:101E7C00F3F3184600F03BF90346002B01D0012385
:101E8C000EE07B680F2B0AD8002279684FF0FF30E8
:101E9C0000F003F9064A7B681360002300E001237D
:101EAC0018460837BD4680BD5C0000206400002049
:101EBC006000002080B400AF054B1B781A46054B20
:101ECC001B681344034A136000BFBD4680BC7047B7
:101EDC00640000202801002080B400AF024B1B6876
:101EEC001846BD4680BC70472801002080B485B0E0
:101EFC0000AF78607B6803F00703FB600C4BDB687A
:101F0C00BB60BA684FF6FF031340BB60FB681A0254
:101F1C00BB68134343F0BF6343F40033BB60044A14
:101F2C00BB68D36000BF1437BD4680BC704700BF90
:101F3C0000ED00E080B400AF044BDB681B0A03F03B
:101F4C0007031846BD4680BC704700BF00ED00E09B
:101F5C0080B483B000AF0346FB7197F90730002BB8
:101F6C000BDBFB7903F01F02064997F907305B097D
:101F7C00012000FA02F241F8232000BF0C37BD46C5
:101F8C0080BC704700E100E080B483B000AF034632
:101F9C003960FB7197F90730002B0ADB3B68DAB22A
:101FAC000C4997F907301201D2B20B4483F8002385
:101FBC000AE03B68DAB20849FB7903F00F03043BF3
:101FCC001201D2B20B441A7600BF0C37BD4680BC4E
:101FDC00704700BF00E100E000ED00E080B489B084
:101FEC0000AFF860B9607A60FB6803F00703FB612F
:101FFC00FB69C3F10703042B28BF0423BB61FB69F6
:10200C000433062B02D9FB69033B00E000237B6100
:10201C004FF0FF32BB6902FA03F3DA43BB681A4094
:10202C007B699A404FF0FF317B6901FA03F3D94386
:10203C007B680B40134318462437BD4680BC704761
:10204C0080B582B000AF78607B68013BB3F1807FD4
:10205C0001D301230FE00A4A7B68013B53600F2137
:10206C004FF0FF30FFF790FF054B00229A60044BB6
:10207C0007221A60002318460837BD4680BD00BFF2
:10208C0010E000E080B582B000AF78607868FFF7B0
:10209C002DFF00BF0837BD4680BD80B586B000AFB0
:1020AC000346B9607A60FB7300237B61FFF742FF44
:1020BC0078617A68B9687869FFF790FF024697F9FA
:1020CC000F3011461846FFF75FFF00BF1837BD46AB
:1020DC0080BD80B582B000AF0346FB7197F9073025
:1020EC001846FFF735FF00BF0837BD4680BD80B5E9
:1020FC0082B000AF78607868FFF7A2FF03461846FD
:10210C000837BD4680BD000080B48BB000AF78604E
:10211C00396000237B6200233B6261E101227B6A10
:10212C0002FA03F3FB613B681B68FA691340BB615D
:10213C00BA69FB699A4240F050813B685B68974AE8
:10214C0093425ED0954A934275D8954A934258D0A3
:10215C00934A93426FD8934A934252D0914A9342F6
:10216C0069D8914A93424CD08F4A934263D88F4A94
:10217C00934246D08D4A93425DD8122B2AD8122B0B
:10218C0059D801A252F823F00F220008E9210008C7
:10219C00FB2100083D2200084322000843220008CE
:1021AC00432200084322000843220008432200086F
:1021BC00432200084322000843220008432200085F
:1021CC00432200084322000843220008F1210008A2
:1021DC0005220008764A934213D02CE03B68DB685A
:1021EC003B6229E03B68DB6804333B6224E03B68DC
:1021FC00DB6808333B621FE03B68DB680C333B62F7
:10220C001AE03B689B68002B02D104233B6213E06D
:10221C003B689B68012B05D108233B627B68FA69FC
:10222C001A6109E008233B627B68FA695A6103E092
:10223C0000233B6200E000BFBB69FF2B01D87B6829
:10224C0001E07B6804337B61BB69FF2B02D87B6A9E
:10225C009B0002E07B6A083B9B003B617B691A6830
:10226C000F213B6901FA03F3DB431A40396A3B69DE
:10227C0001FA03F31A437B691A603B685B6803F04D
:10228C008053002B00F0A9804A4B9B69494A43F0CC
:10229C0001039361474B9B6903F00103BB60BB686F
:1022AC00454A7B6A9B08023352F82330FB607B6AF9
:1022BC0003F003039B000F2202FA03F3DB43FA68DB
:1022CC001340FB607B683D4A93420DD07B683C4ACF
:1022DC00934207D07B683B4A934201D1022304E02E
:1022EC00032302E0012300E000237A6A02F00302D8
:1022FC0092009340FA681343FB602F497B6A9B085A
:10230C000233FA6841F823203B685B6803F48013BE
:10231C00002B06D02C4B9A682B49BB6913438B605E
:10232C0006E0294B9A68BB69DB43274913408B6055
:10233C003B685B6803F40013002B06D0224BDA6871
:10234C002149BB691343CB6006E01F4BDA68BB69BC
:10235C00DB431D491340CB603B685B6803F40033DF
:10236C00002B06D0184B5A681749BB6913434B60B6
:10237C0006E0154B5A68BB69DB43134913404B60AD
:10238C003B685B6803F48033002B1FD00E4B1A683C
:10239C000D49BB6913430B601FE000BF00003210F6
:1023AC00000031100000221000002110000012105B
:1023BC000000111000100240000001400008014014
:1023CC00000C014000100140000401400B4B1A6846
:1023DC00BB69DB43094913400B607B6A01337B62A9
:1023EC003B681A687B6A22FA03F3002B7FF496AEE3
:1023FC0000BF00BF2C37BD4680BC704700040140B5
:10240C0080B485B000AF78600B467B807B689A689F
:10241C007B881340002B02D00123FB7301E00023C7
:10242C00FB73FB7B18461437BD4680BC704780B4E9
:10243C0083B000AF78600B467B8013467B707B7853
:10244C00002B03D07A887B681A6103E07B881A041E
:10245C007B681A6100BF0C37BD4680BC704780B4E6
:10246C0085B000AF78600B467B807B68DB68FB60D7
:10247C007A88FB6813401A04FB68D9437B880B40AD
:10248C001A437B681A6100BF1437BD4680BC704785
:10249C0080B586B000AF78607B68002B01D101233A
:1024AC0072E27B681B6803F00103002B00F087804D
:1024BC00924B5B6803F00C03042B0CD08F4B5B68C6
:1024CC0003F00C03082B12D18C4B5B6803F48033A4
:1024DC00B3F5803F0BD1894B1B6803F40033002B01
:1024EC006CD07B685B68002B68D101234CE27B6865
:1024FC005B68B3F5803F06D1804B1B687F4A43F481
:10250C00803313602EE07B685B68002B0CD17B4B17
:10251C001B687A4A23F480331360784B1B68774A24
:10252C0023F4802313601DE07B685B68B3F5A02F58
:10253C000CD1724B1B68714A43F4802313606F4BB0
:10254C001B686E4A43F4803313600BE06B4B1B68C3
:10255C006A4A23F480331360684B1B68674A23F480
:10256C00802313607B685B68002B13D0FFF7B4FCEF
:10257C00386108E0FFF7B0FC02463B69D31A642BC4
:10258C0001D9032300E25D4B1B6803F40033002BDD
:10259C00F0D014E0FFF7A0FC386108E0FFF79CFCDA
:1025AC0002463B69D31A642B01D90323ECE1534B4C
:1025BC001B6803F40033002BF0D100E000BF7B68F4
:1025CC001B6803F00203002B63D04C4B5B6803F0D9
:1025DC000C03002B0BD0494B5B6803F00C03082B4E
:1025EC001CD1464B5B6803F48033002B16D1434B54
:1025FC001B6803F00203002B05D07B681B69012BC1
:10260C0001D00123C0E13D4B1B6823F0F8027B682D
:10261C005B69DB00394913430B603AE07B681B694B
:10262C00002B20D0364B01221A60FFF755FC386185
:10263C0008E0FFF751FC02463B69D31A022B01D983
:10264C000323A1E12D4B1B6803F00203002BF0D0F8
:10265C002A4B1B6823F0F8027B685B69DB00274977
:10266C0013430B6015E0264B00221A60FFF734FC75
:10267C00386108E0FFF730FC02463B69D31A022BA5
:10268C0001D9032380E11D4B1B6803F00203002BCF
:10269C00F0D17B681B6803F00803002B3AD07B68F1
:1026AC009B69002B19D0174B01221A60FFF714FC01
:1026BC00386108E0FFF710FC02463B69D31A022B85
:1026CC0001D9032360E10D4B5B6A03F00203002B7D
:1026DC00F0D0012000F09CFA1CE00A4B00221A609A
:1026EC00FFF7FAFB38610FE0FFF7F6FB02463B6998
:1026FC00D31A022B08D9032346E100BF0010024075
:10270C000000424280044242924B5B6A03F0020397
:10271C00002BE9D17B681B6803F00403002B00F04D
:10272C00A6800023FB758B4BDB6903F08053002BD9
:10273C000DD1884BDB69874A43F08053D361854BBD
:10274C00DB6903F08053BB60BB680123FB75824BD4
:10275C001B6803F48073002B18D17F4B1B687E4AD7
:10276C0043F480731360FFF7B7FB386108E0FFF7A1
:10277C00B3FB02463B69D31A642B01D9032303E153
:10278C00754B1B6803F48073002BF0D07B68DB68FF
:10279C00012B06D16F4B1B6A6E4A43F00103136287
:1027AC002DE07B68DB68002B0CD16A4B1B6A694AF5
:1027BC0023F001031362674B1B6A664A23F0040380
:1027CC0013621CE07B68DB68052B0CD1614B1B6A28
:1027DC00604A43F0040313625E4B1B6A5D4A43F08C
:1027EC00010313620BE05B4B1B6A5A4A23F0010393
:1027FC001362584B1B6A574A23F0040313627B681D
:10280C00DB68002B15D0FFF767FB38610AE0FFF798
:10281C0063FB02463B69D31A41F28832934201D9D9
:10282C000323B1E04B4B1B6A03F00203002BEED0E9
:10283C0014E0FFF751FB38610AE0FFF74DFB02464D
:10284C003B69D31A41F28832934201D903239BE0AE
:10285C00404B1B6A03F00203002BEED1FB7D012BD6
:10286C0005D13C4BDB693B4A23F08053D3617B6839
:10287C00DB69002B00F08780364B5B6803F00C03A0
:10288C00082B61D07B68DB69022B46D1334B0022CD
:10289C001A60FFF721FB386108E0FFF71DFB0246C9
:1028AC003B69D31A022B01D903236DE0294B1B681A
:1028BC0003F00073002BF0D17B681B6AB3F5803FEB
:1028CC0008D1244B5B6823F400327B689B68214958
:1028DC0013434B601F4B5B6823F474127B68196ABB
:1028EC007B685B6A0B431B4913434B601B4B0122F8
:1028FC001A60FFF7F1FA386108E0FFF7EDFA0246CB
:10290C003B69D31A022B01D903233DE0114B1B6801
:10291C0003F00073002BF0D035E0104B00221A604E
:10292C00FFF7DAFA386108E0FFF7D6FA02463B699E
:10293C00D31A022B01D9032326E0064B1B6803F0A4
:10294C000073002BF0D11EE07B68DB69012B07D1F3
:10295C00012319E000100240007000406000424268
:10296C000B4B5B68FB60FB6803F480327B681B6A73
:10297C009A4206D1FB6803F470127B685B6A9A4238
:10298C0001D0012300E0002318461837BD4680BD56
:10299C000010024080B584B000AF786039607B686D
:1029AC00002B01D10123D0E06A4B1B6803F0070315
:1029BC003A689A4210D9674B1B6823F007026549A5
:1029CC003B6813430B60634B1B6803F007033A68C7
:1029DC009A4201D00123B8E07B681B6803F0020324
:1029EC00002B20D07B681B6803F00403002B05D060
:1029FC00594B5B68584A43F4E06353607B681B682F
:102A0C0003F00803002B05D0534B5B68524A43F488
:102A1C0060535360504B5B6823F0F0027B689B68FB
:102A2C004D4913434B607B681B6803F00103002B7B
:102A3C0040D07B685B68012B07D1474B1B6803F4C4
:102A4C000033002B15D101237FE07B685B68022BE0
:102A5C0007D1414B1B6803F00073002B09D10123F4
:102A6C0073E03D4B1B6803F00203002B01D10123E3
:102A7C006BE0394B5B6823F003027B685B6836497B
:102A8C0013434B60FFF728FAF8600AE0FFF724FACB
:102A9C000246FB68D31A41F28832934201D90323D0
:102AAC0053E02D4B5B6803F00C027B685B689B006A
:102ABC009A42EBD1274B1B6803F007033A689A4202
:102ACC0010D2244B1B6823F0070222493B681343A6
:102ADC000B60204B1B6803F007033A689A4201D045
:102AEC00012332E07B681B6803F00403002B08D041
:102AFC00194B5B6823F4E0627B68DB68164913436F
:102B0C004B607B681B6803F00803002B09D0124B49
:102B1C005B6823F460527B681B69DB000E4913432E
:102B2C004B6000F021F802460B4B5B681B0903F06D
:102B3C000F030A49CB5C22FA03F3094A1360094BD1
:102B4C001B681846FFF786F9002318461037BD4658
:102B5C0080BD00BF002002400010024080340008FD
:102B6C005C0000206000002080B487B000AF002320
:102B7C00FB600023BB6000237B6100237B60002390
:102B8C003B611E4B5B68FB60FB6803F00C03042B82
:102B9C0002D0082B03D027E0194B3B6127E0FB68E0
:102BAC009B0C03F00F03174AD35C7B60FB6803F4A8
:102BBC008033002B10D0114B5B685B0C03F00103CE
:102BCC00114AD35CBB607B680D4A03FB02F2BB6805
:102BDC00B2FBF3F37B6104E07B680C4A02FB03F36A
:102BEC007B617B693B6102E0054B3B6100BF3B694C
:102BFC0018461C37BD4680BC704700BF0010024011
:102C0C0000127A0090340008A034000800093D003E
:102C1C0080B485B000AF78600A4B1B680A4AA2FBEF
:102C2C0003235B0A7A6802FB03F3FB6000BFFB68BB
:102C3C005A1EFA60002BF9D100BF00BF1437BD46F5
:102C4C0080BC70475C000020D34D621080B582B010
:102C5C0000AF78607B68002B01D1012341E07B68D9
:102C6C0093F83D30DBB2002B06D17B68002283F851
:102C7C003C207868FFF752F87B68022283F83D20ED
:102C8C007B681A687B6804331946104600F056FAC4
:102C9C007B68012283F846207B68012283F83E2062
:102CAC007B68012283F83F207B68012283F8402057
:102CBC007B68012283F841207B68012283F8422043
:102CCC007B68012283F843207B68012283F844202F
:102CDC007B68012283F845207B68012283F83D2024
:102CEC00002318460837BD4680BD000080B485B06F
:102CFC0000AF78607B6893F83D30DBB2012B01D0DC
:102D0C00012335E07B68022283F83D207B681B6839
:102D1C00DA687B681B6842F00102DA607B681B682A
:102D2C00164A934209D07B681B68B3F1804F04D0DC
:102D3C007B681B68124A934211D17B681B689B68A5
:102D4C0003F00703FB60FB68062B10D07B681B6845
:102D5C001A687B681B6842F001021A6007E07B6806
:102D6C001B681A687B681B6842F001021A6000231A
:102D7C0018461437BD4680BC704700BF002C01407C
:102D8C000004004080B584B000AF78607B681B689D
:102D9C00DB68FB607B681B681B69BB60BB6803F06E
:102DAC000203002B20D0FB6803F00203002B1BD086
:102DBC007B681B686FF002021A617B6801221A772C
:102DCC007B681B689B6903F00303002B03D07868B6
:102DDC0000F098F905E0786800F08BF9786800F05D
:102DEC009AF97B6800221A77BB6803F00403002B66
:102DFC0020D0FB6803F00403002B1BD07B681B68FE
:102E0C006FF004021A617B6802221A777B681B68D8
:102E1C009B6903F44073002B03D0786800F072F9BF
:102E2C0005E0786800F065F9786800F074F97B6863
:102E3C0000221A77BB6803F00803002B20D0FB6834
:102E4C0003F00803002B1BD07B681B686FF0080293
:102E5C001A617B6804221A777B681B68DB6903F0B4
:102E6C000303002B03D0786800F04CF905E0786878
:102E7C0000F03FF9786800F04EF97B6800221A7771
:102E8C00BB6803F01003002B20D0FB6803F0100389
:102E9C00002B1BD07B681B686FF010021A617B68DB
:102EAC0008221A777B681B68DB6903F44073002BDC
:102EBC0003D0786800F026F905E0786800F019F97D
:102ECC00786800F028F97B6800221A77BB6803F059
:102EDC000103002B0CD0FB6803F00103002B07D07F
:102EEC007B681B686FF001021A617868FEF7B8FD09
:102EFC00BB6803F08003002B0CD0FB6803F080034D
:102F0C00002B07D07B681B686FF080021A61786811
:102F1C0000F06FFABB6803F04003002B0CD0FB6889
:102F2C0003F04003002B07D07B681B686FF0400256
:102F3C001A61786800F0F8F8BB6803F02003002BE6
:102F4C000CD0FB6803F02003002B07D07B681B68B8
:102F5C006FF020021A61786800F042FA00BF103757
:102F6C00BD4680BD80B584B000AF78603960002369
:102F7C00FB737B6893F83C30012B01D10223B4E046
:102F8C007B68012283F83C207B68022283F83D2079
:102F9C007B681B689B68BB60BB6823F07703BB60D6
:102FAC00BB6823F47F43BB607B681B68BA689A607C
:102FBC003B681B68B3F5005F3ED0B3F5005F00F2D1
:102FCC008780B3F5805F00F08680B3F5805F7FD893
:102FDC00702B1AD0702B7BD8602B50D0602B77D8ED
:102FEC00502B3CD0502B73D8402B58D0402B6FD843
:102FFC00302B64D0302B6BD8202B60D0202B67D893
:10300C00002B5CD0102B5AD062E07B6818683B68B0
:10301C0099683B685A683B68DB6800F06AF97B6822
:10302C001B689B68BB60BB6843F07703BB607B6825
:10303C001B68BA689A604FE07B6818683B689968AF
:10304C003B685A683B68DB6800F053F97B681B6887
:10305C009A687B681B6842F480429A603CE07B680B
:10306C0018683B6859683B68DB681A4600F0CAF878
:10307C007B681B685021184600F021F92CE07B6816
:10308C0018683B6859683B68DB681A4600F0E8F83A
:10309C007B681B686021184600F011F91CE07B6806
:1030AC0018683B6859683B68DB681A4600F0AAF858
:1030BC007B681B684021184600F001F90CE07B6826
:1030CC001A683B681B681946104600F0F8F803E0D4
:1030DC000123FB7300E000BF7B68012283F83D20D5
:1030EC007B68002283F83C20FB7B18461037BD46DA
:1030FC0080BD80B483B000AF786000BF0C37BD4694
:10310C0080BC704780B483B000AF786000BF0C37D0
:10311C00BD4680BC704780B483B000AF786000BF00
:10312C000C37BD4680BC704780B483B000AF78606C
:10313C0000BF0C37BD4680BC7047000080B485B022
:10314C0000AF786039607B681B68FB607B682B4A3A
:10315C00934207D07B68B3F1804F03D07B68284A39
:10316C00934208D1FB6823F07003FB603B685B68FB
:10317C00FA681343FB607B68204A934207D07B6854
:10318C00B3F1804F03D07B681D4A934208D1FB6892
:10319C0023F44073FB603B68DB68FA681343FB6005
:1031AC00FB6823F080023B685B691343FB607B6820
:1031BC00FA681A603B689A687B68DA623B681A683E
:1031CC007B689A627B680D4A934203D13B681A690B
:1031DC007B681A637B6801225A617B681B6903F068
:1031EC000103002B05D07B681B6923F001027B686F
:1031FC001A6100BF1437BD4680BC7047002C0140DB
:10320C000004004080B487B000AFF860B9607A6009
:10321C00FB681B6A7B61FB681B6A23F00102FB687D
:10322C001A62FB689B693B613B6923F0F0033B61CD
:10323C007B681B013A6913433B617B6923F00A03EA
:10324C007B617A69BB6813437B61FB683A699A615D
:10325C00FB687A691A6200BF1C37BD4680BC704798
:10326C0080B487B000AFF860B9607A60FB681B6A05
:10327C007B61FB681B6A23F01002FB681A62FB6817
:10328C009B693B613B6923F470433B617B681B0387
:10329C003A6913433B617B6923F0A0037B61BB68F4
:1032AC001B017A6913437B61FB683A699A61FB687D
:1032BC007A691A6200BF1C37BD4680BC704780B467
:1032CC0085B000AF786039607B689B68FB60FB68F9
:1032DC0023F07003FB603A68FB68134343F0070369
:1032EC00FB607B68FA689A6000BF1437BD4680BCEF
:1032FC00704780B487B000AFF860B9607A603B600B
:10330C00FB689B687B617B6923F47F437B613B6833
:10331C001A027B681A43BB6813437A6913437B61B7
:10332C00FB687A699A6000BF1C37BD4680BC704749
:10333C0080B485B000AF786039607B6893F83C301E
:10334C00012B01D1022341E07B68012283F83C2050
:10335C007B68022283F83D207B681B685B68FB60FE
:10336C007B681B689B68BB60FB6823F07003FB6089
:10337C003B681B68FA681343FB607B681B68FA6840
:10338C005A607B681B68144A934209D07B681B689F
:10339C00B3F1804F04D07B681B68104A93420CD168
:1033AC00BB6823F08003BB603B685B68BA6813435F
:1033BC00BB607B681B68BA689A607B68012283F8E3
:1033CC003D207B68002283F83C20002318461437EC
:1033DC00BD4680BC704700BF002C0140000400407B
:1033EC0080B483B000AF786000BF0C37BD4680BCA2
:1033FC00704780B483B000AF786000BF0C37BD4617
:10340C0080BC704703460244934200D1704703F8D6
:10341C00011BF9E770B500260C4D0D4C641BA41074
:10342C00A64209D100F01AF800260A4D0A4C641B7A
:10343C00A410A64205D170BD55F8043B984701363F
:10344C00EEE755F8043B98470136F2E7A434000840
:10345C00A4340008A4340008A8340008F8B500BF50
:10346C00F8BC08BC9E467047F8B500BFF8BC08BC59
:04347C009E467047B1
:103480000000000000000000010203040607080914
:1034900002030405060708090A0B0C0D0E0F101095
:0434A0000102000025
:0434A40031010008EA
:0434A8000D0100080A
:1034AC00010000000100000001000000010000000C
:1034BC00F401000001000000010000000100000008
:1034CC0001000000F40100000100000001000000F8
:1034DC000100000001000000F401000001000000E8
:1034EC0001000000010000000400000005000000C5
:1034FC0003000000020000000A00000000127A0025
:08350C001000000001000000A6
:0400000508001DE9E9
:00000001FF
